{
  "_format": "hh-sol-artifact-1",
  "contractName": "UniVoteChain",
  "sourceName": "contracts/UniVoteChain.sol",
  "abi": [
    {
      "inputs": [
        {
          "internalType": "address",
          "name": "_uniVoteCoin",
          "type": "address"
        }
      ],
      "stateMutability": "nonpayable",
      "type": "constructor"
    },
    {
      "inputs": [
        {
          "internalType": "address",
          "name": "owner",
          "type": "address"
        }
      ],
      "name": "OwnableInvalidOwner",
      "type": "error"
    },
    {
      "inputs": [
        {
          "internalType": "address",
          "name": "account",
          "type": "address"
        }
      ],
      "name": "OwnableUnauthorizedAccount",
      "type": "error"
    },
    {
      "anonymous": false,
      "inputs": [
        {
          "indexed": true,
          "internalType": "address",
          "name": "previousOwner",
          "type": "address"
        },
        {
          "indexed": true,
          "internalType": "address",
          "name": "newOwner",
          "type": "address"
        }
      ],
      "name": "OwnershipTransferred",
      "type": "event"
    },
    {
      "anonymous": false,
      "inputs": [
        {
          "indexed": true,
          "internalType": "address",
          "name": "user",
          "type": "address"
        }
      ],
      "name": "UserRegistered",
      "type": "event"
    },
    {
      "anonymous": false,
      "inputs": [
        {
          "indexed": true,
          "internalType": "uint256",
          "name": "voteId",
          "type": "uint256"
        },
        {
          "indexed": false,
          "internalType": "string",
          "name": "name",
          "type": "string"
        },
        {
          "indexed": true,
          "internalType": "address",
          "name": "creator",
          "type": "address"
        }
      ],
      "name": "VoteCreated",
      "type": "event"
    },
    {
      "anonymous": false,
      "inputs": [
        {
          "indexed": true,
          "internalType": "uint256",
          "name": "voteId",
          "type": "uint256"
        }
      ],
      "name": "VoteStopped",
      "type": "event"
    },
    {
      "anonymous": false,
      "inputs": [
        {
          "indexed": true,
          "internalType": "uint256",
          "name": "voteId",
          "type": "uint256"
        },
        {
          "indexed": true,
          "internalType": "address",
          "name": "voter",
          "type": "address"
        },
        {
          "indexed": false,
          "internalType": "uint256",
          "name": "optionIndex",
          "type": "uint256"
        }
      ],
      "name": "Voted",
      "type": "event"
    },
    {
      "inputs": [
        {
          "internalType": "string",
          "name": "_name",
          "type": "string"
        },
        {
          "internalType": "string[]",
          "name": "_options",
          "type": "string[]"
        },
        {
          "internalType": "address[]",
          "name": "_allowedVoters",
          "type": "address[]"
        }
      ],
      "name": "createVote",
      "outputs": [],
      "stateMutability": "nonpayable",
      "type": "function"
    },
    {
      "inputs": [
        {
          "internalType": "uint256",
          "name": "_voteId",
          "type": "uint256"
        },
        {
          "internalType": "address",
          "name": "_user",
          "type": "address"
        }
      ],
      "name": "getUserVoteStatus",
      "outputs": [
        {
          "internalType": "bool",
          "name": "hasVoted",
          "type": "bool"
        },
        {
          "internalType": "bool",
          "name": "isAllowed",
          "type": "bool"
        }
      ],
      "stateMutability": "view",
      "type": "function"
    },
    {
      "inputs": [
        {
          "internalType": "uint256",
          "name": "_voteId",
          "type": "uint256"
        }
      ],
      "name": "getVoteDetails",
      "outputs": [
        {
          "internalType": "string",
          "name": "name",
          "type": "string"
        },
        {
          "internalType": "string[]",
          "name": "options",
          "type": "string[]"
        },
        {
          "internalType": "uint256[]",
          "name": "optionVotes",
          "type": "uint256[]"
        },
        {
          "internalType": "address[]",
          "name": "allowedVoters",
          "type": "address[]"
        },
        {
          "internalType": "bool",
          "name": "isActive",
          "type": "bool"
        },
        {
          "internalType": "address",
          "name": "creator",
          "type": "address"
        }
      ],
      "stateMutability": "view",
      "type": "function"
    },
    {
      "inputs": [],
      "name": "owner",
      "outputs": [
        {
          "internalType": "address",
          "name": "",
          "type": "address"
        }
      ],
      "stateMutability": "view",
      "type": "function"
    },
    {
      "inputs": [],
      "name": "register",
      "outputs": [],
      "stateMutability": "nonpayable",
      "type": "function"
    },
    {
      "inputs": [
        {
          "internalType": "address",
          "name": "user",
          "type": "address"
        }
      ],
      "name": "registeredUsers",
      "outputs": [
        {
          "internalType": "bool",
          "name": "",
          "type": "bool"
        }
      ],
      "stateMutability": "view",
      "type": "function"
    },
    {
      "inputs": [],
      "name": "renounceOwnership",
      "outputs": [],
      "stateMutability": "nonpayable",
      "type": "function"
    },
    {
      "inputs": [
        {
          "internalType": "uint256",
          "name": "_voteId",
          "type": "uint256"
        }
      ],
      "name": "stopVote",
      "outputs": [],
      "stateMutability": "nonpayable",
      "type": "function"
    },
    {
      "inputs": [
        {
          "internalType": "address",
          "name": "newOwner",
          "type": "address"
        }
      ],
      "name": "transferOwnership",
      "outputs": [],
      "stateMutability": "nonpayable",
      "type": "function"
    },
    {
      "inputs": [],
      "name": "uniVoteCoin",
      "outputs": [
        {
          "internalType": "contract UniVoteCoin",
          "name": "",
          "type": "address"
        }
      ],
      "stateMutability": "view",
      "type": "function"
    },
    {
      "inputs": [
        {
          "internalType": "uint256",
          "name": "_voteId",
          "type": "uint256"
        },
        {
          "internalType": "uint256",
          "name": "_optionIndex",
          "type": "uint256"
        }
      ],
      "name": "vote",
      "outputs": [],
      "stateMutability": "nonpayable",
      "type": "function"
    },
    {
      "inputs": [],
      "name": "voteCount",
      "outputs": [
        {
          "internalType": "uint256",
          "name": "",
          "type": "uint256"
        }
      ],
      "stateMutability": "view",
      "type": "function"
    }
  ],
  "bytecode": "0x60806040523480156200001157600080fd5b5060405162002c0838038062002c08833981810160405281019062000037919062000235565b33600073ffffffffffffffffffffffffffffffffffffffff168173ffffffffffffffffffffffffffffffffffffffff1603620000ad5760006040517f1e4fbdf7000000000000000000000000000000000000000000000000000000008152600401620000a4919062000278565b60405180910390fd5b620000be816200010760201b60201c565b5080600160006101000a81548173ffffffffffffffffffffffffffffffffffffffff021916908373ffffffffffffffffffffffffffffffffffffffff1602179055505062000295565b60008060009054906101000a900473ffffffffffffffffffffffffffffffffffffffff169050816000806101000a81548173ffffffffffffffffffffffffffffffffffffffff021916908373ffffffffffffffffffffffffffffffffffffffff1602179055508173ffffffffffffffffffffffffffffffffffffffff168173ffffffffffffffffffffffffffffffffffffffff167f8be0079c531659141344cd1fd0a4f28419497f9722a3daafe3b4186f6b6457e060405160405180910390a35050565b600080fd5b600073ffffffffffffffffffffffffffffffffffffffff82169050919050565b6000620001fd82620001d0565b9050919050565b6200020f81620001f0565b81146200021b57600080fd5b50565b6000815190506200022f8162000204565b92915050565b6000602082840312156200024e576200024d620001cb565b5b60006200025e848285016200021e565b91505092915050565b6200027281620001f0565b82525050565b60006020820190506200028f600083018462000267565b92915050565b61296380620002a56000396000f3fe608060405234801561001057600080fd5b50600436106100b45760003560e01c8063715018a611610071578063715018a61461017e57806389b7dd85146101885780638da5cb5b146101b9578063b384abef146101d7578063c6384071146101f3578063f2fde38b14610211576100b4565b80630e50cee5146100b957806312f46337146100e95780631aa3a0081461010757806343ab92b71461011157806354a1b4311461012d5780636ecbc15114610162575b600080fd5b6100d360048036038101906100ce919061166a565b61022d565b6040516100e091906116b2565b60405180910390f35b6100f1610283565b6040516100fe919061172c565b60405180910390f35b61010f6102a9565b005b61012b6004803603810190610126919061177d565b6103d3565b005b6101476004803603810190610142919061177d565b6105f6565b60405161015996959493929190611ad1565b60405180910390f35b61017c60048036038101906101779190611e2c565b6108f0565b005b610186610c2b565b005b6101a2600480360381019061019d9190611ed3565b610c3f565b6040516101b0929190611f13565b60405180910390f35b6101c1610da3565b6040516101ce9190611f3c565b60405180910390f35b6101f160048036038101906101ec9190611f57565b610dcc565b005b6101fb6111a0565b6040516102089190611fa6565b60405180910390f35b61022b6004803603810190610226919061166a565b6111a6565b005b6000600460008373ffffffffffffffffffffffffffffffffffffffff1673ffffffffffffffffffffffffffffffffffffffff16815260200190815260200160002060009054906101000a900460ff169050919050565b600160009054906101000a900473ffffffffffffffffffffffffffffffffffffffff1681565b600460003373ffffffffffffffffffffffffffffffffffffffff1673ffffffffffffffffffffffffffffffffffffffff16815260200190815260200160002060009054906101000a900460ff1615610336576040517f08c379a000000000000000000000000000000000000000000000000000000000815260040161032d9061200d565b60405180910390fd5b6001600460003373ffffffffffffffffffffffffffffffffffffffff1673ffffffffffffffffffffffffffffffffffffffff16815260200190815260200160002060006101000a81548160ff0219169083151502179055503373ffffffffffffffffffffffffffffffffffffffff167f54db7a5cb4735e1aac1f53db512d3390390bb6637bd30ad4bf9fc98667d9b9b960405160405180910390a2565b6002548110610417576040517f08c379a000000000000000000000000000000000000000000000000000000000815260040161040e90612079565b60405180910390fd5b60006003600083815260200190815260200160002090503373ffffffffffffffffffffffffffffffffffffffff168160050160019054906101000a900473ffffffffffffffffffffffffffffffffffffffff1673ffffffffffffffffffffffffffffffffffffffff16146104c0576040517f08c379a00000000000000000000000000000000000000000000000000000000081526004016104b7906120e5565b60405180910390fd5b8060050160009054906101000a900460ff16610511576040517f08c379a000000000000000000000000000000000000000000000000000000000815260040161050890612151565b60405180910390fd5b60008160050160006101000a81548160ff021916908315150217905550600160009054906101000a900473ffffffffffffffffffffffffffffffffffffffff1673ffffffffffffffffffffffffffffffffffffffff166340c10f1933674563918244f400006040518363ffffffff1660e01b81526004016105939291906121ac565b600060405180830381600087803b1580156105ad57600080fd5b505af11580156105c1573d6000803e3d6000fd5b50505050817f9629c08265e29e042a1bec87bd4f79e271c91da7a6adabd79a9ce2496bfcb3f060405160405180910390a25050565b6060806060806000806002548710610643576040517f08c379a000000000000000000000000000000000000000000000000000000000815260040161063a90612079565b60405180910390fd5b6000600360008981526020019081526020016000209050806000018160010182600201836004018460050160009054906101000a900460ff168560050160019054906101000a900473ffffffffffffffffffffffffffffffffffffffff168580546106ad90612204565b80601f01602080910402602001604051908101604052809291908181526020018280546106d990612204565b80156107265780601f106106fb57610100808354040283529160200191610726565b820191906000526020600020905b81548152906001019060200180831161070957829003601f168201915b5050505050955084805480602002602001604051908101604052809291908181526020016000905b828210156107fa57838290600052602060002001805461076d90612204565b80601f016020809104026020016040519081016040528092919081815260200182805461079990612204565b80156107e65780601f106107bb576101008083540402835291602001916107e6565b820191906000526020600020905b8154815290600101906020018083116107c957829003601f168201915b50505050508152602001906001019061074e565b5050505094508380548060200260200160405190810160405280929190818152602001828054801561084b57602002820191906000526020600020905b815481526020019060010190808311610837575b50505050509350828054806020026020016040519081016040528092919081815260200182805480156108d357602002820191906000526020600020905b8160009054906101000a900473ffffffffffffffffffffffffffffffffffffffff1673ffffffffffffffffffffffffffffffffffffffff1681526020019060010190808311610889575b505050505092509650965096509650965096505091939550919395565b600460003373ffffffffffffffffffffffffffffffffffffffff1673ffffffffffffffffffffffffffffffffffffffff16815260200190815260200160002060009054906101000a900460ff1661097c576040517f08c379a000000000000000000000000000000000000000000000000000000000815260040161097390612281565b60405180910390fd5b6002825110156109c1576040517f08c379a00000000000000000000000000000000000000000000000000000000081526004016109b8906122ed565b60405180910390fd5b6000815111610a05576040517f08c379a00000000000000000000000000000000000000000000000000000000081526004016109fc90612359565b60405180910390fd5b6000600360006002548152602001908152602001600020905083816000019081610a2f919061251b565b5082816001019080519060200190610a48929190611447565b50825167ffffffffffffffff811115610a6457610a63611b58565b5b604051908082528060200260200182016040528015610a925781602001602082028036833780820191505090505b50816002019080519060200190610aaa9291906114a0565b5081816004019080519060200190610ac39291906114ed565b5060018160050160006101000a81548160ff021916908315150217905550338160050160016101000a81548173ffffffffffffffffffffffffffffffffffffffff021916908373ffffffffffffffffffffffffffffffffffffffff1602179055503373ffffffffffffffffffffffffffffffffffffffff166002547f0b0eb434b18eb3f0d02f9b4b01d92bf397c2fde355b0b3fad98aa2a5ffd63c2c86604051610b6d91906125ed565b60405180910390a360026000815480929190610b889061263e565b9190505550600160009054906101000a900473ffffffffffffffffffffffffffffffffffffffff1673ffffffffffffffffffffffffffffffffffffffff166340c10f19336801158e460913d000006040518363ffffffff1660e01b8152600401610bf39291906126c1565b600060405180830381600087803b158015610c0d57600080fd5b505af1158015610c21573d6000803e3d6000fd5b5050505050505050565b610c3361122c565b610c3d60006112b3565b565b6000806002548410610c86576040517f08c379a0000000000000000000000000000000000000000000000000000000008152600401610c7d90612079565b60405180910390fd5b600060036000868152602001908152602001600020905060008160030160008673ffffffffffffffffffffffffffffffffffffffff1673ffffffffffffffffffffffffffffffffffffffff16815260200190815260200160002060009054906101000a900460ff1690506000805b8360040180549050811015610d92578673ffffffffffffffffffffffffffffffffffffffff16846004018281548110610d3057610d2f6126ea565b5b9060005260206000200160009054906101000a900473ffffffffffffffffffffffffffffffffffffffff1673ffffffffffffffffffffffffffffffffffffffff1603610d7f5760019150610d92565b8080610d8a9061263e565b915050610cf4565b508181945094505050509250929050565b60008060009054906101000a900473ffffffffffffffffffffffffffffffffffffffff16905090565b6002548210610e10576040517f08c379a0000000000000000000000000000000000000000000000000000000008152600401610e0790612079565b60405180910390fd5b60006003600084815260200190815260200160002090508060050160009054906101000a900460ff16610e78576040517f08c379a0000000000000000000000000000000000000000000000000000000008152600401610e6f90612765565b60405180910390fd5b600460003373ffffffffffffffffffffffffffffffffffffffff1673ffffffffffffffffffffffffffffffffffffffff16815260200190815260200160002060009054906101000a900460ff16610f04576040517f08c379a0000000000000000000000000000000000000000000000000000000008152600401610efb90612281565b60405180910390fd5b8060030160003373ffffffffffffffffffffffffffffffffffffffff1673ffffffffffffffffffffffffffffffffffffffff16815260200190815260200160002060009054906101000a900460ff1615610f93576040517f08c379a0000000000000000000000000000000000000000000000000000000008152600401610f8a906127d1565b60405180910390fd5b80600101805490508210610fdc576040517f08c379a0000000000000000000000000000000000000000000000000000000008152600401610fd39061283d565b60405180910390fd5b610fe68333611377565b611025576040517f08c379a000000000000000000000000000000000000000000000000000000000815260040161101c906128a9565b60405180910390fd5b60018160030160003373ffffffffffffffffffffffffffffffffffffffff1673ffffffffffffffffffffffffffffffffffffffff16815260200190815260200160002060006101000a81548160ff021916908315150217905550806002018281548110611095576110946126ea565b5b9060005260206000200160008154809291906110b09061263e565b9190505550600160009054906101000a900473ffffffffffffffffffffffffffffffffffffffff1673ffffffffffffffffffffffffffffffffffffffff166340c10f1933678ac7230489e800006040518363ffffffff1660e01b815260040161111a929190612904565b600060405180830381600087803b15801561113457600080fd5b505af1158015611148573d6000803e3d6000fd5b505050503373ffffffffffffffffffffffffffffffffffffffff16837f1abe610cf2bf87e57dcc1181fcf5ac0934e843d8344ab9eed6e86c799f62585e846040516111939190611fa6565b60405180910390a3505050565b60025481565b6111ae61122c565b600073ffffffffffffffffffffffffffffffffffffffff168173ffffffffffffffffffffffffffffffffffffffff16036112205760006040517f1e4fbdf70000000000000000000000000000000000000000000000000000000081526004016112179190611f3c565b60405180910390fd5b611229816112b3565b50565b61123461143f565b73ffffffffffffffffffffffffffffffffffffffff16611252610da3565b73ffffffffffffffffffffffffffffffffffffffff16146112b15761127561143f565b6040517f118cdaa70000000000000000000000000000000000000000000000000000000081526004016112a89190611f3c565b60405180910390fd5b565b60008060009054906101000a900473ffffffffffffffffffffffffffffffffffffffff169050816000806101000a81548173ffffffffffffffffffffffffffffffffffffffff021916908373ffffffffffffffffffffffffffffffffffffffff1602179055508173ffffffffffffffffffffffffffffffffffffffff168173ffffffffffffffffffffffffffffffffffffffff167f8be0079c531659141344cd1fd0a4f28419497f9722a3daafe3b4186f6b6457e060405160405180910390a35050565b60008060036000858152602001908152602001600020905060005b8160040180549050811015611432578373ffffffffffffffffffffffffffffffffffffffff168260040182815481106113ce576113cd6126ea565b5b9060005260206000200160009054906101000a900473ffffffffffffffffffffffffffffffffffffffff1673ffffffffffffffffffffffffffffffffffffffff160361141f57600192505050611439565b808061142a9061263e565b915050611392565b5060009150505b92915050565b600033905090565b82805482825590600052602060002090810192821561148f579160200282015b8281111561148e57825182908161147e919061251b565b5091602001919060010190611467565b5b50905061149c9190611577565b5090565b8280548282559060005260206000209081019282156114dc579160200282015b828111156114db5782518255916020019190600101906114c0565b5b5090506114e9919061159b565b5090565b828054828255906000526020600020908101928215611566579160200282015b828111156115655782518260006101000a81548173ffffffffffffffffffffffffffffffffffffffff021916908373ffffffffffffffffffffffffffffffffffffffff1602179055509160200191906001019061150d565b5b509050611573919061159b565b5090565b5b80821115611597576000818161158e91906115b8565b50600101611578565b5090565b5b808211156115b457600081600090555060010161159c565b5090565b5080546115c490612204565b6000825580601f106115d657506115f5565b601f0160209004906000526020600020908101906115f4919061159b565b5b50565b6000604051905090565b600080fd5b600080fd5b600073ffffffffffffffffffffffffffffffffffffffff82169050919050565b60006116378261160c565b9050919050565b6116478161162c565b811461165257600080fd5b50565b6000813590506116648161163e565b92915050565b6000602082840312156116805761167f611602565b5b600061168e84828501611655565b91505092915050565b60008115159050919050565b6116ac81611697565b82525050565b60006020820190506116c760008301846116a3565b92915050565b6000819050919050565b60006116f26116ed6116e88461160c565b6116cd565b61160c565b9050919050565b6000611704826116d7565b9050919050565b6000611716826116f9565b9050919050565b6117268161170b565b82525050565b6000602082019050611741600083018461171d565b92915050565b6000819050919050565b61175a81611747565b811461176557600080fd5b50565b60008135905061177781611751565b92915050565b60006020828403121561179357611792611602565b5b60006117a184828501611768565b91505092915050565b600081519050919050565b600082825260208201905092915050565b60005b838110156117e45780820151818401526020810190506117c9565b60008484015250505050565b6000601f19601f8301169050919050565b600061180c826117aa565b61181681856117b5565b93506118268185602086016117c6565b61182f816117f0565b840191505092915050565b600081519050919050565b600082825260208201905092915050565b6000819050602082019050919050565b600082825260208201905092915050565b6000611882826117aa565b61188c8185611866565b935061189c8185602086016117c6565b6118a5816117f0565b840191505092915050565b60006118bc8383611877565b905092915050565b6000602082019050919050565b60006118dc8261183a565b6118e68185611845565b9350836020820285016118f885611856565b8060005b85811015611934578484038952815161191585826118b0565b9450611920836118c4565b925060208a019950506001810190506118fc565b50829750879550505050505092915050565b600081519050919050565b600082825260208201905092915050565b6000819050602082019050919050565b61197b81611747565b82525050565b600061198d8383611972565b60208301905092915050565b6000602082019050919050565b60006119b182611946565b6119bb8185611951565b93506119c683611962565b8060005b838110156119f75781516119de8882611981565b97506119e983611999565b9250506001810190506119ca565b5085935050505092915050565b600081519050919050565b600082825260208201905092915050565b6000819050602082019050919050565b611a398161162c565b82525050565b6000611a4b8383611a30565b60208301905092915050565b6000602082019050919050565b6000611a6f82611a04565b611a798185611a0f565b9350611a8483611a20565b8060005b83811015611ab5578151611a9c8882611a3f565b9750611aa783611a57565b925050600181019050611a88565b5085935050505092915050565b611acb8161162c565b82525050565b600060c0820190508181036000830152611aeb8189611801565b90508181036020830152611aff81886118d1565b90508181036040830152611b1381876119a6565b90508181036060830152611b278186611a64565b9050611b3660808301856116a3565b611b4360a0830184611ac2565b979650505050505050565b600080fd5b600080fd5b7f4e487b7100000000000000000000000000000000000000000000000000000000600052604160045260246000fd5b611b90826117f0565b810181811067ffffffffffffffff82111715611baf57611bae611b58565b5b80604052505050565b6000611bc26115f8565b9050611bce8282611b87565b919050565b600067ffffffffffffffff821115611bee57611bed611b58565b5b611bf7826117f0565b9050602081019050919050565b82818337600083830152505050565b6000611c26611c2184611bd3565b611bb8565b905082815260208101848484011115611c4257611c41611b53565b5b611c4d848285611c04565b509392505050565b600082601f830112611c6a57611c69611b4e565b5b8135611c7a848260208601611c13565b91505092915050565b600067ffffffffffffffff821115611c9e57611c9d611b58565b5b602082029050602081019050919050565b600080fd5b6000611cc7611cc284611c83565b611bb8565b90508083825260208201905060208402830185811115611cea57611ce9611caf565b5b835b81811015611d3157803567ffffffffffffffff811115611d0f57611d0e611b4e565b5b808601611d1c8982611c55565b85526020850194505050602081019050611cec565b5050509392505050565b600082601f830112611d5057611d4f611b4e565b5b8135611d60848260208601611cb4565b91505092915050565b600067ffffffffffffffff821115611d8457611d83611b58565b5b602082029050602081019050919050565b6000611da8611da384611d69565b611bb8565b90508083825260208201905060208402830185811115611dcb57611dca611caf565b5b835b81811015611df45780611de08882611655565b845260208401935050602081019050611dcd565b5050509392505050565b600082601f830112611e1357611e12611b4e565b5b8135611e23848260208601611d95565b91505092915050565b600080600060608486031215611e4557611e44611602565b5b600084013567ffffffffffffffff811115611e6357611e62611607565b5b611e6f86828701611c55565b935050602084013567ffffffffffffffff811115611e9057611e8f611607565b5b611e9c86828701611d3b565b925050604084013567ffffffffffffffff811115611ebd57611ebc611607565b5b611ec986828701611dfe565b9150509250925092565b60008060408385031215611eea57611ee9611602565b5b6000611ef885828601611768565b9250506020611f0985828601611655565b9150509250929050565b6000604082019050611f2860008301856116a3565b611f3560208301846116a3565b9392505050565b6000602082019050611f516000830184611ac2565b92915050565b60008060408385031215611f6e57611f6d611602565b5b6000611f7c85828601611768565b9250506020611f8d85828601611768565b9150509250929050565b611fa081611747565b82525050565b6000602082019050611fbb6000830184611f97565b92915050565b7f5573657220616c72656164792072656769737465726564000000000000000000600082015250565b6000611ff76017836117b5565b915061200282611fc1565b602082019050919050565b6000602082019050818103600083015261202681611fea565b9050919050565b7f566f746520646f6573206e6f7420657869737400000000000000000000000000600082015250565b60006120636013836117b5565b915061206e8261202d565b602082019050919050565b6000602082019050818103600083015261209281612056565b9050919050565b7f4e6f7420766f74652063726561746f7200000000000000000000000000000000600082015250565b60006120cf6010836117b5565b91506120da82612099565b602082019050919050565b600060208201905081810360008301526120fe816120c2565b9050919050565b7f566f746520616c72656164792073746f70706564000000000000000000000000600082015250565b600061213b6014836117b5565b915061214682612105565b602082019050919050565b6000602082019050818103600083015261216a8161212e565b9050919050565b6000819050919050565b600061219661219161218c84612171565b6116cd565b611747565b9050919050565b6121a68161217b565b82525050565b60006040820190506121c16000830185611ac2565b6121ce602083018461219d565b9392505050565b7f4e487b7100000000000000000000000000000000000000000000000000000000600052602260045260246000fd5b6000600282049050600182168061221c57607f821691505b60208210810361222f5761222e6121d5565b5b50919050565b7f55736572206e6f74207265676973746572656400000000000000000000000000600082015250565b600061226b6013836117b5565b915061227682612235565b602082019050919050565b6000602082019050818103600083015261229a8161225e565b9050919050565b7f4174206c656173742074776f206f7074696f6e73207265717569726564000000600082015250565b60006122d7601d836117b5565b91506122e2826122a1565b602082019050919050565b60006020820190508181036000830152612306816122ca565b9050919050565b7f4174206c65617374206f6e6520766f7465722072657175697265640000000000600082015250565b6000612343601b836117b5565b915061234e8261230d565b602082019050919050565b6000602082019050818103600083015261237281612336565b9050919050565b60008190508160005260206000209050919050565b60006020601f8301049050919050565b600082821b905092915050565b6000600883026123db7fffffffffffffffffffffffffffffffffffffffffffffffffffffffffffffffff8261239e565b6123e5868361239e565b95508019841693508086168417925050509392505050565b600061241861241361240e84611747565b6116cd565b611747565b9050919050565b6000819050919050565b612432836123fd565b61244661243e8261241f565b8484546123ab565b825550505050565b600090565b61245b61244e565b612466818484612429565b505050565b5b8181101561248a5761247f600082612453565b60018101905061246c565b5050565b601f8211156124cf576124a081612379565b6124a98461238e565b810160208510156124b8578190505b6124cc6124c48561238e565b83018261246b565b50505b505050565b600082821c905092915050565b60006124f2600019846008026124d4565b1980831691505092915050565b600061250b83836124e1565b9150826002028217905092915050565b612524826117aa565b67ffffffffffffffff81111561253d5761253c611b58565b5b6125478254612204565b61255282828561248e565b600060209050601f8311600181146125855760008415612573578287015190505b61257d85826124ff565b8655506125e5565b601f19841661259386612379565b60005b828110156125bb57848901518255600182019150602085019450602081019050612596565b868310156125d857848901516125d4601f8916826124e1565b8355505b6001600288020188555050505b505050505050565b600060208201905081810360008301526126078184611801565b905092915050565b7f4e487b7100000000000000000000000000000000000000000000000000000000600052601160045260246000fd5b600061264982611747565b91507fffffffffffffffffffffffffffffffffffffffffffffffffffffffffffffffff820361267b5761267a61260f565b5b600182019050919050565b6000819050919050565b60006126ab6126a66126a184612686565b6116cd565b611747565b9050919050565b6126bb81612690565b82525050565b60006040820190506126d66000830185611ac2565b6126e360208301846126b2565b9392505050565b7f4e487b7100000000000000000000000000000000000000000000000000000000600052603260045260246000fd5b7f566f7465206973206e6f74206163746976650000000000000000000000000000600082015250565b600061274f6012836117b5565b915061275a82612719565b602082019050919050565b6000602082019050818103600083015261277e81612742565b9050919050565b7f5573657220616c726561647920766f7465640000000000000000000000000000600082015250565b60006127bb6012836117b5565b91506127c682612785565b602082019050919050565b600060208201905081810360008301526127ea816127ae565b9050919050565b7f496e76616c6964206f7074696f6e000000000000000000000000000000000000600082015250565b6000612827600e836117b5565b9150612832826127f1565b602082019050919050565b600060208201905081810360008301526128568161281a565b9050919050565b7f4e6f7420616c6c6f77656420746f20766f746500000000000000000000000000600082015250565b60006128936013836117b5565b915061289e8261285d565b602082019050919050565b600060208201905081810360008301526128c281612886565b9050919050565b6000819050919050565b60006128ee6128e96128e4846128c9565b6116cd565b611747565b9050919050565b6128fe816128d3565b82525050565b60006040820190506129196000830185611ac2565b61292660208301846128f5565b939250505056fea2646970667358221220aef088de575fce5bb1dfc8981fc5f757ed7986fb7217dc7a3975d7a6a2ac68aa64736f6c63430008140033",
  "linkReferences": {},
  "deployedLinkReferences": {}
}