{"contracts/UniVoteChain.sol":{"UniVoteChain":{"abi":[{"inputs":[{"internalType":"address","name":"_uniVoteCoin","type":"address"}],"stateMutability":"nonpayable","type":"constructor"},{"inputs":[{"internalType":"address","name":"owner","type":"address"}],"name":"OwnableInvalidOwner","type":"error"},{"inputs":[{"internalType":"address","name":"account","type":"address"}],"name":"OwnableUnauthorizedAccount","type":"error"},{"anonymous":false,"inputs":[{"indexed":true,"internalType":"address","name":"previousOwner","type":"address"},{"indexed":true,"internalType":"address","name":"newOwner","type":"address"}],"name":"OwnershipTransferred","type":"event"},{"anonymous":false,"inputs":[{"indexed":true,"internalType":"address","name":"user","type":"address"}],"name":"UserRegistered","type":"event"},{"anonymous":false,"inputs":[{"indexed":true,"internalType":"uint256","name":"voteId","type":"uint256"},{"indexed":false,"internalType":"string","name":"name","type":"string"},{"indexed":true,"internalType":"address","name":"creator","type":"address"}],"name":"VoteCreated","type":"event"},{"anonymous":false,"inputs":[{"indexed":true,"internalType":"uint256","name":"voteId","type":"uint256"}],"name":"VoteStopped","type":"event"},{"anonymous":false,"inputs":[{"indexed":true,"internalType":"uint256","name":"voteId","type":"uint256"},{"indexed":true,"internalType":"address","name":"voter","type":"address"},{"indexed":false,"internalType":"uint256","name":"optionIndex","type":"uint256"}],"name":"Voted","type":"event"},{"inputs":[{"internalType":"string","name":"_name","type":"string"},{"internalType":"string[]","name":"_options","type":"string[]"},{"internalType":"address[]","name":"_allowedVoters","type":"address[]"}],"name":"createVote","outputs":[],"stateMutability":"nonpayable","type":"function"},{"inputs":[{"internalType":"uint256","name":"_voteId","type":"uint256"},{"internalType":"address","name":"_user","type":"address"}],"name":"getUserVoteStatus","outputs":[{"internalType":"bool","name":"hasVoted","type":"bool"},{"internalType":"bool","name":"isAllowed","type":"bool"}],"stateMutability":"view","type":"function"},{"inputs":[{"internalType":"uint256","name":"_voteId","type":"uint256"}],"name":"getVoteDetails","outputs":[{"internalType":"string","name":"name","type":"string"},{"internalType":"string[]","name":"options","type":"string[]"},{"internalType":"uint256[]","name":"optionVotes","type":"uint256[]"},{"internalType":"address[]","name":"allowedVoters","type":"address[]"},{"internalType":"bool","name":"isActive","type":"bool"},{"internalType":"address","name":"creator","type":"address"}],"stateMutability":"view","type":"function"},{"inputs":[],"name":"owner","outputs":[{"internalType":"address","name":"","type":"address"}],"stateMutability":"view","type":"function"},{"inputs":[],"name":"register","outputs":[],"stateMutability":"nonpayable","type":"function"},{"inputs":[{"internalType":"address","name":"user","type":"address"}],"name":"registeredUsers","outputs":[{"internalType":"bool","name":"","type":"bool"}],"stateMutability":"view","type":"function"},{"inputs":[],"name":"renounceOwnership","outputs":[],"stateMutability":"nonpayable","type":"function"},{"inputs":[{"internalType":"uint256","name":"_voteId","type":"uint256"}],"name":"stopVote","outputs":[],"stateMutability":"nonpayable","type":"function"},{"inputs":[{"internalType":"address","name":"newOwner","type":"address"}],"name":"transferOwnership","outputs":[],"stateMutability":"nonpayable","type":"function"},{"inputs":[],"name":"uniVoteCoin","outputs":[{"internalType":"contract UniVoteCoin","name":"","type":"address"}],"stateMutability":"view","type":"function"},{"inputs":[{"internalType":"uint256","name":"_voteId","type":"uint256"},{"internalType":"uint256","name":"_optionIndex","type":"uint256"}],"name":"vote","outputs":[],"stateMutability":"nonpayable","type":"function"},{"inputs":[],"name":"voteCount","outputs":[{"internalType":"uint256","name":"","type":"uint256"}],"stateMutability":"view","type":"function"}],"evm":{"bytecode":{"linkReferences":{},"object":"60806040523480156200001157600080fd5b5060405162002c0838038062002c08833981810160405281019062000037919062000235565b33600073ffffffffffffffffffffffffffffffffffffffff168173ffffffffffffffffffffffffffffffffffffffff1603620000ad5760006040517f1e4fbdf7000000000000000000000000000000000000000000000000000000008152600401620000a4919062000278565b60405180910390fd5b620000be816200010760201b60201c565b5080600160006101000a81548173ffffffffffffffffffffffffffffffffffffffff021916908373ffffffffffffffffffffffffffffffffffffffff1602179055505062000295565b60008060009054906101000a900473ffffffffffffffffffffffffffffffffffffffff169050816000806101000a81548173ffffffffffffffffffffffffffffffffffffffff021916908373ffffffffffffffffffffffffffffffffffffffff1602179055508173ffffffffffffffffffffffffffffffffffffffff168173ffffffffffffffffffffffffffffffffffffffff167f8be0079c531659141344cd1fd0a4f28419497f9722a3daafe3b4186f6b6457e060405160405180910390a35050565b600080fd5b600073ffffffffffffffffffffffffffffffffffffffff82169050919050565b6000620001fd82620001d0565b9050919050565b6200020f81620001f0565b81146200021b57600080fd5b50565b6000815190506200022f8162000204565b92915050565b6000602082840312156200024e576200024d620001cb565b5b60006200025e848285016200021e565b91505092915050565b6200027281620001f0565b82525050565b60006020820190506200028f600083018462000267565b92915050565b61296380620002a56000396000f3fe608060405234801561001057600080fd5b50600436106100b45760003560e01c8063715018a611610071578063715018a61461017e57806389b7dd85146101885780638da5cb5b146101b9578063b384abef146101d7578063c6384071146101f3578063f2fde38b14610211576100b4565b80630e50cee5146100b957806312f46337146100e95780631aa3a0081461010757806343ab92b71461011157806354a1b4311461012d5780636ecbc15114610162575b600080fd5b6100d360048036038101906100ce919061166a565b61022d565b6040516100e091906116b2565b60405180910390f35b6100f1610283565b6040516100fe919061172c565b60405180910390f35b61010f6102a9565b005b61012b6004803603810190610126919061177d565b6103d3565b005b6101476004803603810190610142919061177d565b6105f6565b60405161015996959493929190611ad1565b60405180910390f35b61017c60048036038101906101779190611e2c565b6108f0565b005b610186610c2b565b005b6101a2600480360381019061019d9190611ed3565b610c3f565b6040516101b0929190611f13565b60405180910390f35b6101c1610da3565b6040516101ce9190611f3c565b60405180910390f35b6101f160048036038101906101ec9190611f57565b610dcc565b005b6101fb6111a0565b6040516102089190611fa6565b60405180910390f35b61022b6004803603810190610226919061166a565b6111a6565b005b6000600460008373ffffffffffffffffffffffffffffffffffffffff1673ffffffffffffffffffffffffffffffffffffffff16815260200190815260200160002060009054906101000a900460ff169050919050565b600160009054906101000a900473ffffffffffffffffffffffffffffffffffffffff1681565b600460003373ffffffffffffffffffffffffffffffffffffffff1673ffffffffffffffffffffffffffffffffffffffff16815260200190815260200160002060009054906101000a900460ff1615610336576040517f08c379a000000000000000000000000000000000000000000000000000000000815260040161032d9061200d565b60405180910390fd5b6001600460003373ffffffffffffffffffffffffffffffffffffffff1673ffffffffffffffffffffffffffffffffffffffff16815260200190815260200160002060006101000a81548160ff0219169083151502179055503373ffffffffffffffffffffffffffffffffffffffff167f54db7a5cb4735e1aac1f53db512d3390390bb6637bd30ad4bf9fc98667d9b9b960405160405180910390a2565b6002548110610417576040517f08c379a000000000000000000000000000000000000000000000000000000000815260040161040e90612079565b60405180910390fd5b60006003600083815260200190815260200160002090503373ffffffffffffffffffffffffffffffffffffffff168160050160019054906101000a900473ffffffffffffffffffffffffffffffffffffffff1673ffffffffffffffffffffffffffffffffffffffff16146104c0576040517f08c379a00000000000000000000000000000000000000000000000000000000081526004016104b7906120e5565b60405180910390fd5b8060050160009054906101000a900460ff16610511576040517f08c379a000000000000000000000000000000000000000000000000000000000815260040161050890612151565b60405180910390fd5b60008160050160006101000a81548160ff021916908315150217905550600160009054906101000a900473ffffffffffffffffffffffffffffffffffffffff1673ffffffffffffffffffffffffffffffffffffffff166340c10f1933674563918244f400006040518363ffffffff1660e01b81526004016105939291906121ac565b600060405180830381600087803b1580156105ad57600080fd5b505af11580156105c1573d6000803e3d6000fd5b50505050817f9629c08265e29e042a1bec87bd4f79e271c91da7a6adabd79a9ce2496bfcb3f060405160405180910390a25050565b6060806060806000806002548710610643576040517f08c379a000000000000000000000000000000000000000000000000000000000815260040161063a90612079565b60405180910390fd5b6000600360008981526020019081526020016000209050806000018160010182600201836004018460050160009054906101000a900460ff168560050160019054906101000a900473ffffffffffffffffffffffffffffffffffffffff168580546106ad90612204565b80601f01602080910402602001604051908101604052809291908181526020018280546106d990612204565b80156107265780601f106106fb57610100808354040283529160200191610726565b820191906000526020600020905b81548152906001019060200180831161070957829003601f168201915b5050505050955084805480602002602001604051908101604052809291908181526020016000905b828210156107fa57838290600052602060002001805461076d90612204565b80601f016020809104026020016040519081016040528092919081815260200182805461079990612204565b80156107e65780601f106107bb576101008083540402835291602001916107e6565b820191906000526020600020905b8154815290600101906020018083116107c957829003601f168201915b50505050508152602001906001019061074e565b5050505094508380548060200260200160405190810160405280929190818152602001828054801561084b57602002820191906000526020600020905b815481526020019060010190808311610837575b50505050509350828054806020026020016040519081016040528092919081815260200182805480156108d357602002820191906000526020600020905b8160009054906101000a900473ffffffffffffffffffffffffffffffffffffffff1673ffffffffffffffffffffffffffffffffffffffff1681526020019060010190808311610889575b505050505092509650965096509650965096505091939550919395565b600460003373ffffffffffffffffffffffffffffffffffffffff1673ffffffffffffffffffffffffffffffffffffffff16815260200190815260200160002060009054906101000a900460ff1661097c576040517f08c379a000000000000000000000000000000000000000000000000000000000815260040161097390612281565b60405180910390fd5b6002825110156109c1576040517f08c379a00000000000000000000000000000000000000000000000000000000081526004016109b8906122ed565b60405180910390fd5b6000815111610a05576040517f08c379a00000000000000000000000000000000000000000000000000000000081526004016109fc90612359565b60405180910390fd5b6000600360006002548152602001908152602001600020905083816000019081610a2f919061251b565b5082816001019080519060200190610a48929190611447565b50825167ffffffffffffffff811115610a6457610a63611b58565b5b604051908082528060200260200182016040528015610a925781602001602082028036833780820191505090505b50816002019080519060200190610aaa9291906114a0565b5081816004019080519060200190610ac39291906114ed565b5060018160050160006101000a81548160ff021916908315150217905550338160050160016101000a81548173ffffffffffffffffffffffffffffffffffffffff021916908373ffffffffffffffffffffffffffffffffffffffff1602179055503373ffffffffffffffffffffffffffffffffffffffff166002547f0b0eb434b18eb3f0d02f9b4b01d92bf397c2fde355b0b3fad98aa2a5ffd63c2c86604051610b6d91906125ed565b60405180910390a360026000815480929190610b889061263e565b9190505550600160009054906101000a900473ffffffffffffffffffffffffffffffffffffffff1673ffffffffffffffffffffffffffffffffffffffff166340c10f19336801158e460913d000006040518363ffffffff1660e01b8152600401610bf39291906126c1565b600060405180830381600087803b158015610c0d57600080fd5b505af1158015610c21573d6000803e3d6000fd5b5050505050505050565b610c3361122c565b610c3d60006112b3565b565b6000806002548410610c86576040517f08c379a0000000000000000000000000000000000000000000000000000000008152600401610c7d90612079565b60405180910390fd5b600060036000868152602001908152602001600020905060008160030160008673ffffffffffffffffffffffffffffffffffffffff1673ffffffffffffffffffffffffffffffffffffffff16815260200190815260200160002060009054906101000a900460ff1690506000805b8360040180549050811015610d92578673ffffffffffffffffffffffffffffffffffffffff16846004018281548110610d3057610d2f6126ea565b5b9060005260206000200160009054906101000a900473ffffffffffffffffffffffffffffffffffffffff1673ffffffffffffffffffffffffffffffffffffffff1603610d7f5760019150610d92565b8080610d8a9061263e565b915050610cf4565b508181945094505050509250929050565b60008060009054906101000a900473ffffffffffffffffffffffffffffffffffffffff16905090565b6002548210610e10576040517f08c379a0000000000000000000000000000000000000000000000000000000008152600401610e0790612079565b60405180910390fd5b60006003600084815260200190815260200160002090508060050160009054906101000a900460ff16610e78576040517f08c379a0000000000000000000000000000000000000000000000000000000008152600401610e6f90612765565b60405180910390fd5b600460003373ffffffffffffffffffffffffffffffffffffffff1673ffffffffffffffffffffffffffffffffffffffff16815260200190815260200160002060009054906101000a900460ff16610f04576040517f08c379a0000000000000000000000000000000000000000000000000000000008152600401610efb90612281565b60405180910390fd5b8060030160003373ffffffffffffffffffffffffffffffffffffffff1673ffffffffffffffffffffffffffffffffffffffff16815260200190815260200160002060009054906101000a900460ff1615610f93576040517f08c379a0000000000000000000000000000000000000000000000000000000008152600401610f8a906127d1565b60405180910390fd5b80600101805490508210610fdc576040517f08c379a0000000000000000000000000000000000000000000000000000000008152600401610fd39061283d565b60405180910390fd5b610fe68333611377565b611025576040517f08c379a000000000000000000000000000000000000000000000000000000000815260040161101c906128a9565b60405180910390fd5b60018160030160003373ffffffffffffffffffffffffffffffffffffffff1673ffffffffffffffffffffffffffffffffffffffff16815260200190815260200160002060006101000a81548160ff021916908315150217905550806002018281548110611095576110946126ea565b5b9060005260206000200160008154809291906110b09061263e565b9190505550600160009054906101000a900473ffffffffffffffffffffffffffffffffffffffff1673ffffffffffffffffffffffffffffffffffffffff166340c10f1933678ac7230489e800006040518363ffffffff1660e01b815260040161111a929190612904565b600060405180830381600087803b15801561113457600080fd5b505af1158015611148573d6000803e3d6000fd5b505050503373ffffffffffffffffffffffffffffffffffffffff16837f1abe610cf2bf87e57dcc1181fcf5ac0934e843d8344ab9eed6e86c799f62585e846040516111939190611fa6565b60405180910390a3505050565b60025481565b6111ae61122c565b600073ffffffffffffffffffffffffffffffffffffffff168173ffffffffffffffffffffffffffffffffffffffff16036112205760006040517f1e4fbdf70000000000000000000000000000000000000000000000000000000081526004016112179190611f3c565b60405180910390fd5b611229816112b3565b50565b61123461143f565b73ffffffffffffffffffffffffffffffffffffffff16611252610da3565b73ffffffffffffffffffffffffffffffffffffffff16146112b15761127561143f565b6040517f118cdaa70000000000000000000000000000000000000000000000000000000081526004016112a89190611f3c565b60405180910390fd5b565b60008060009054906101000a900473ffffffffffffffffffffffffffffffffffffffff169050816000806101000a81548173ffffffffffffffffffffffffffffffffffffffff021916908373ffffffffffffffffffffffffffffffffffffffff1602179055508173ffffffffffffffffffffffffffffffffffffffff168173ffffffffffffffffffffffffffffffffffffffff167f8be0079c531659141344cd1fd0a4f28419497f9722a3daafe3b4186f6b6457e060405160405180910390a35050565b60008060036000858152602001908152602001600020905060005b8160040180549050811015611432578373ffffffffffffffffffffffffffffffffffffffff168260040182815481106113ce576113cd6126ea565b5b9060005260206000200160009054906101000a900473ffffffffffffffffffffffffffffffffffffffff1673ffffffffffffffffffffffffffffffffffffffff160361141f57600192505050611439565b808061142a9061263e565b915050611392565b5060009150505b92915050565b600033905090565b82805482825590600052602060002090810192821561148f579160200282015b8281111561148e57825182908161147e919061251b565b5091602001919060010190611467565b5b50905061149c9190611577565b5090565b8280548282559060005260206000209081019282156114dc579160200282015b828111156114db5782518255916020019190600101906114c0565b5b5090506114e9919061159b565b5090565b828054828255906000526020600020908101928215611566579160200282015b828111156115655782518260006101000a81548173ffffffffffffffffffffffffffffffffffffffff021916908373ffffffffffffffffffffffffffffffffffffffff1602179055509160200191906001019061150d565b5b509050611573919061159b565b5090565b5b80821115611597576000818161158e91906115b8565b50600101611578565b5090565b5b808211156115b457600081600090555060010161159c565b5090565b5080546115c490612204565b6000825580601f106115d657506115f5565b601f0160209004906000526020600020908101906115f4919061159b565b5b50565b6000604051905090565b600080fd5b600080fd5b600073ffffffffffffffffffffffffffffffffffffffff82169050919050565b60006116378261160c565b9050919050565b6116478161162c565b811461165257600080fd5b50565b6000813590506116648161163e565b92915050565b6000602082840312156116805761167f611602565b5b600061168e84828501611655565b91505092915050565b60008115159050919050565b6116ac81611697565b82525050565b60006020820190506116c760008301846116a3565b92915050565b6000819050919050565b60006116f26116ed6116e88461160c565b6116cd565b61160c565b9050919050565b6000611704826116d7565b9050919050565b6000611716826116f9565b9050919050565b6117268161170b565b82525050565b6000602082019050611741600083018461171d565b92915050565b6000819050919050565b61175a81611747565b811461176557600080fd5b50565b60008135905061177781611751565b92915050565b60006020828403121561179357611792611602565b5b60006117a184828501611768565b91505092915050565b600081519050919050565b600082825260208201905092915050565b60005b838110156117e45780820151818401526020810190506117c9565b60008484015250505050565b6000601f19601f8301169050919050565b600061180c826117aa565b61181681856117b5565b93506118268185602086016117c6565b61182f816117f0565b840191505092915050565b600081519050919050565b600082825260208201905092915050565b6000819050602082019050919050565b600082825260208201905092915050565b6000611882826117aa565b61188c8185611866565b935061189c8185602086016117c6565b6118a5816117f0565b840191505092915050565b60006118bc8383611877565b905092915050565b6000602082019050919050565b60006118dc8261183a565b6118e68185611845565b9350836020820285016118f885611856565b8060005b85811015611934578484038952815161191585826118b0565b9450611920836118c4565b925060208a019950506001810190506118fc565b50829750879550505050505092915050565b600081519050919050565b600082825260208201905092915050565b6000819050602082019050919050565b61197b81611747565b82525050565b600061198d8383611972565b60208301905092915050565b6000602082019050919050565b60006119b182611946565b6119bb8185611951565b93506119c683611962565b8060005b838110156119f75781516119de8882611981565b97506119e983611999565b9250506001810190506119ca565b5085935050505092915050565b600081519050919050565b600082825260208201905092915050565b6000819050602082019050919050565b611a398161162c565b82525050565b6000611a4b8383611a30565b60208301905092915050565b6000602082019050919050565b6000611a6f82611a04565b611a798185611a0f565b9350611a8483611a20565b8060005b83811015611ab5578151611a9c8882611a3f565b9750611aa783611a57565b925050600181019050611a88565b5085935050505092915050565b611acb8161162c565b82525050565b600060c0820190508181036000830152611aeb8189611801565b90508181036020830152611aff81886118d1565b90508181036040830152611b1381876119a6565b90508181036060830152611b278186611a64565b9050611b3660808301856116a3565b611b4360a0830184611ac2565b979650505050505050565b600080fd5b600080fd5b7f4e487b7100000000000000000000000000000000000000000000000000000000600052604160045260246000fd5b611b90826117f0565b810181811067ffffffffffffffff82111715611baf57611bae611b58565b5b80604052505050565b6000611bc26115f8565b9050611bce8282611b87565b919050565b600067ffffffffffffffff821115611bee57611bed611b58565b5b611bf7826117f0565b9050602081019050919050565b82818337600083830152505050565b6000611c26611c2184611bd3565b611bb8565b905082815260208101848484011115611c4257611c41611b53565b5b611c4d848285611c04565b509392505050565b600082601f830112611c6a57611c69611b4e565b5b8135611c7a848260208601611c13565b91505092915050565b600067ffffffffffffffff821115611c9e57611c9d611b58565b5b602082029050602081019050919050565b600080fd5b6000611cc7611cc284611c83565b611bb8565b90508083825260208201905060208402830185811115611cea57611ce9611caf565b5b835b81811015611d3157803567ffffffffffffffff811115611d0f57611d0e611b4e565b5b808601611d1c8982611c55565b85526020850194505050602081019050611cec565b5050509392505050565b600082601f830112611d5057611d4f611b4e565b5b8135611d60848260208601611cb4565b91505092915050565b600067ffffffffffffffff821115611d8457611d83611b58565b5b602082029050602081019050919050565b6000611da8611da384611d69565b611bb8565b90508083825260208201905060208402830185811115611dcb57611dca611caf565b5b835b81811015611df45780611de08882611655565b845260208401935050602081019050611dcd565b5050509392505050565b600082601f830112611e1357611e12611b4e565b5b8135611e23848260208601611d95565b91505092915050565b600080600060608486031215611e4557611e44611602565b5b600084013567ffffffffffffffff811115611e6357611e62611607565b5b611e6f86828701611c55565b935050602084013567ffffffffffffffff811115611e9057611e8f611607565b5b611e9c86828701611d3b565b925050604084013567ffffffffffffffff811115611ebd57611ebc611607565b5b611ec986828701611dfe565b9150509250925092565b60008060408385031215611eea57611ee9611602565b5b6000611ef885828601611768565b9250506020611f0985828601611655565b9150509250929050565b6000604082019050611f2860008301856116a3565b611f3560208301846116a3565b9392505050565b6000602082019050611f516000830184611ac2565b92915050565b60008060408385031215611f6e57611f6d611602565b5b6000611f7c85828601611768565b9250506020611f8d85828601611768565b9150509250929050565b611fa081611747565b82525050565b6000602082019050611fbb6000830184611f97565b92915050565b7f5573657220616c72656164792072656769737465726564000000000000000000600082015250565b6000611ff76017836117b5565b915061200282611fc1565b602082019050919050565b6000602082019050818103600083015261202681611fea565b9050919050565b7f566f746520646f6573206e6f7420657869737400000000000000000000000000600082015250565b60006120636013836117b5565b915061206e8261202d565b602082019050919050565b6000602082019050818103600083015261209281612056565b9050919050565b7f4e6f7420766f74652063726561746f7200000000000000000000000000000000600082015250565b60006120cf6010836117b5565b91506120da82612099565b602082019050919050565b600060208201905081810360008301526120fe816120c2565b9050919050565b7f566f746520616c72656164792073746f70706564000000000000000000000000600082015250565b600061213b6014836117b5565b915061214682612105565b602082019050919050565b6000602082019050818103600083015261216a8161212e565b9050919050565b6000819050919050565b600061219661219161218c84612171565b6116cd565b611747565b9050919050565b6121a68161217b565b82525050565b60006040820190506121c16000830185611ac2565b6121ce602083018461219d565b9392505050565b7f4e487b7100000000000000000000000000000000000000000000000000000000600052602260045260246000fd5b6000600282049050600182168061221c57607f821691505b60208210810361222f5761222e6121d5565b5b50919050565b7f55736572206e6f74207265676973746572656400000000000000000000000000600082015250565b600061226b6013836117b5565b915061227682612235565b602082019050919050565b6000602082019050818103600083015261229a8161225e565b9050919050565b7f4174206c656173742074776f206f7074696f6e73207265717569726564000000600082015250565b60006122d7601d836117b5565b91506122e2826122a1565b602082019050919050565b60006020820190508181036000830152612306816122ca565b9050919050565b7f4174206c65617374206f6e6520766f7465722072657175697265640000000000600082015250565b6000612343601b836117b5565b915061234e8261230d565b602082019050919050565b6000602082019050818103600083015261237281612336565b9050919050565b60008190508160005260206000209050919050565b60006020601f8301049050919050565b600082821b905092915050565b6000600883026123db7fffffffffffffffffffffffffffffffffffffffffffffffffffffffffffffffff8261239e565b6123e5868361239e565b95508019841693508086168417925050509392505050565b600061241861241361240e84611747565b6116cd565b611747565b9050919050565b6000819050919050565b612432836123fd565b61244661243e8261241f565b8484546123ab565b825550505050565b600090565b61245b61244e565b612466818484612429565b505050565b5b8181101561248a5761247f600082612453565b60018101905061246c565b5050565b601f8211156124cf576124a081612379565b6124a98461238e565b810160208510156124b8578190505b6124cc6124c48561238e565b83018261246b565b50505b505050565b600082821c905092915050565b60006124f2600019846008026124d4565b1980831691505092915050565b600061250b83836124e1565b9150826002028217905092915050565b612524826117aa565b67ffffffffffffffff81111561253d5761253c611b58565b5b6125478254612204565b61255282828561248e565b600060209050601f8311600181146125855760008415612573578287015190505b61257d85826124ff565b8655506125e5565b601f19841661259386612379565b60005b828110156125bb57848901518255600182019150602085019450602081019050612596565b868310156125d857848901516125d4601f8916826124e1565b8355505b6001600288020188555050505b505050505050565b600060208201905081810360008301526126078184611801565b905092915050565b7f4e487b7100000000000000000000000000000000000000000000000000000000600052601160045260246000fd5b600061264982611747565b91507fffffffffffffffffffffffffffffffffffffffffffffffffffffffffffffffff820361267b5761267a61260f565b5b600182019050919050565b6000819050919050565b60006126ab6126a66126a184612686565b6116cd565b611747565b9050919050565b6126bb81612690565b82525050565b60006040820190506126d66000830185611ac2565b6126e360208301846126b2565b9392505050565b7f4e487b7100000000000000000000000000000000000000000000000000000000600052603260045260246000fd5b7f566f7465206973206e6f74206163746976650000000000000000000000000000600082015250565b600061274f6012836117b5565b915061275a82612719565b602082019050919050565b6000602082019050818103600083015261277e81612742565b9050919050565b7f5573657220616c726561647920766f7465640000000000000000000000000000600082015250565b60006127bb6012836117b5565b91506127c682612785565b602082019050919050565b600060208201905081810360008301526127ea816127ae565b9050919050565b7f496e76616c6964206f7074696f6e000000000000000000000000000000000000600082015250565b6000612827600e836117b5565b9150612832826127f1565b602082019050919050565b600060208201905081810360008301526128568161281a565b9050919050565b7f4e6f7420616c6c6f77656420746f20766f746500000000000000000000000000600082015250565b60006128936013836117b5565b915061289e8261285d565b602082019050919050565b600060208201905081810360008301526128c281612886565b9050919050565b6000819050919050565b60006128ee6128e96128e4846128c9565b6116cd565b611747565b9050919050565b6128fe816128d3565b82525050565b60006040820190506129196000830185611ac2565b61292660208301846128f5565b939250505056fea2646970667358221220aef088de575fce5bb1dfc8981fc5f757ed7986fb7217dc7a3975d7a6a2ac68aa64736f6c63430008140033","opcodes":"PUSH1 0x80 PUSH1 0x40 MSTORE CALLVALUE DUP1 ISZERO PUSH3 0x11 JUMPI PUSH1 0x0 DUP1 REVERT JUMPDEST POP PUSH1 0x40 MLOAD PUSH3 0x2C08 CODESIZE SUB DUP1 PUSH3 0x2C08 DUP4 CODECOPY DUP2 DUP2 ADD PUSH1 0x40 MSTORE DUP2 ADD SWAP1 PUSH3 0x37 SWAP2 SWAP1 PUSH3 0x235 JUMP JUMPDEST CALLER PUSH1 0x0 PUSH20 0xFFFFFFFFFFFFFFFFFFFFFFFFFFFFFFFFFFFFFFFF AND DUP2 PUSH20 0xFFFFFFFFFFFFFFFFFFFFFFFFFFFFFFFFFFFFFFFF AND SUB PUSH3 0xAD JUMPI PUSH1 0x0 PUSH1 0x40 MLOAD PUSH32 0x1E4FBDF700000000000000000000000000000000000000000000000000000000 DUP2 MSTORE PUSH1 0x4 ADD PUSH3 0xA4 SWAP2 SWAP1 PUSH3 0x278 JUMP JUMPDEST PUSH1 0x40 MLOAD DUP1 SWAP2 SUB SWAP1 REVERT JUMPDEST PUSH3 0xBE DUP2 PUSH3 0x107 PUSH1 0x20 SHL PUSH1 0x20 SHR JUMP JUMPDEST POP DUP1 PUSH1 0x1 PUSH1 0x0 PUSH2 0x100 EXP DUP2 SLOAD DUP2 PUSH20 0xFFFFFFFFFFFFFFFFFFFFFFFFFFFFFFFFFFFFFFFF MUL NOT AND SWAP1 DUP4 PUSH20 0xFFFFFFFFFFFFFFFFFFFFFFFFFFFFFFFFFFFFFFFF AND MUL OR SWAP1 SSTORE POP POP PUSH3 0x295 JUMP JUMPDEST PUSH1 0x0 DUP1 PUSH1 0x0 SWAP1 SLOAD SWAP1 PUSH2 0x100 EXP SWAP1 DIV PUSH20 0xFFFFFFFFFFFFFFFFFFFFFFFFFFFFFFFFFFFFFFFF AND SWAP1 POP DUP2 PUSH1 0x0 DUP1 PUSH2 0x100 EXP DUP2 SLOAD DUP2 PUSH20 0xFFFFFFFFFFFFFFFFFFFFFFFFFFFFFFFFFFFFFFFF MUL NOT AND SWAP1 DUP4 PUSH20 0xFFFFFFFFFFFFFFFFFFFFFFFFFFFFFFFFFFFFFFFF AND MUL OR SWAP1 SSTORE POP DUP2 PUSH20 0xFFFFFFFFFFFFFFFFFFFFFFFFFFFFFFFFFFFFFFFF AND DUP2 PUSH20 0xFFFFFFFFFFFFFFFFFFFFFFFFFFFFFFFFFFFFFFFF AND PUSH32 0x8BE0079C531659141344CD1FD0A4F28419497F9722A3DAAFE3B4186F6B6457E0 PUSH1 0x40 MLOAD PUSH1 0x40 MLOAD DUP1 SWAP2 SUB SWAP1 LOG3 POP POP JUMP JUMPDEST PUSH1 0x0 DUP1 REVERT JUMPDEST PUSH1 0x0 PUSH20 0xFFFFFFFFFFFFFFFFFFFFFFFFFFFFFFFFFFFFFFFF DUP3 AND SWAP1 POP SWAP2 SWAP1 POP JUMP JUMPDEST PUSH1 0x0 PUSH3 0x1FD DUP3 PUSH3 0x1D0 JUMP JUMPDEST SWAP1 POP SWAP2 SWAP1 POP JUMP JUMPDEST PUSH3 0x20F DUP2 PUSH3 0x1F0 JUMP JUMPDEST DUP2 EQ PUSH3 0x21B JUMPI PUSH1 0x0 DUP1 REVERT JUMPDEST POP JUMP JUMPDEST PUSH1 0x0 DUP2 MLOAD SWAP1 POP PUSH3 0x22F DUP2 PUSH3 0x204 JUMP JUMPDEST SWAP3 SWAP2 POP POP JUMP JUMPDEST PUSH1 0x0 PUSH1 0x20 DUP3 DUP5 SUB SLT ISZERO PUSH3 0x24E JUMPI PUSH3 0x24D PUSH3 0x1CB JUMP JUMPDEST JUMPDEST PUSH1 0x0 PUSH3 0x25E DUP5 DUP3 DUP6 ADD PUSH3 0x21E JUMP JUMPDEST SWAP2 POP POP SWAP3 SWAP2 POP POP JUMP JUMPDEST PUSH3 0x272 DUP2 PUSH3 0x1F0 JUMP JUMPDEST DUP3 MSTORE POP POP JUMP JUMPDEST PUSH1 0x0 PUSH1 0x20 DUP3 ADD SWAP1 POP PUSH3 0x28F PUSH1 0x0 DUP4 ADD DUP5 PUSH3 0x267 JUMP JUMPDEST SWAP3 SWAP2 POP POP JUMP JUMPDEST PUSH2 0x2963 DUP1 PUSH3 0x2A5 PUSH1 0x0 CODECOPY PUSH1 0x0 RETURN INVALID PUSH1 0x80 PUSH1 0x40 MSTORE CALLVALUE DUP1 ISZERO PUSH2 0x10 JUMPI PUSH1 0x0 DUP1 REVERT JUMPDEST POP PUSH1 0x4 CALLDATASIZE LT PUSH2 0xB4 JUMPI PUSH1 0x0 CALLDATALOAD PUSH1 0xE0 SHR DUP1 PUSH4 0x715018A6 GT PUSH2 0x71 JUMPI DUP1 PUSH4 0x715018A6 EQ PUSH2 0x17E JUMPI DUP1 PUSH4 0x89B7DD85 EQ PUSH2 0x188 JUMPI DUP1 PUSH4 0x8DA5CB5B EQ PUSH2 0x1B9 JUMPI DUP1 PUSH4 0xB384ABEF EQ PUSH2 0x1D7 JUMPI DUP1 PUSH4 0xC6384071 EQ PUSH2 0x1F3 JUMPI DUP1 PUSH4 0xF2FDE38B EQ PUSH2 0x211 JUMPI PUSH2 0xB4 JUMP JUMPDEST DUP1 PUSH4 0xE50CEE5 EQ PUSH2 0xB9 JUMPI DUP1 PUSH4 0x12F46337 EQ PUSH2 0xE9 JUMPI DUP1 PUSH4 0x1AA3A008 EQ PUSH2 0x107 JUMPI DUP1 PUSH4 0x43AB92B7 EQ PUSH2 0x111 JUMPI DUP1 PUSH4 0x54A1B431 EQ PUSH2 0x12D JUMPI DUP1 PUSH4 0x6ECBC151 EQ PUSH2 0x162 JUMPI JUMPDEST PUSH1 0x0 DUP1 REVERT JUMPDEST PUSH2 0xD3 PUSH1 0x4 DUP1 CALLDATASIZE SUB DUP2 ADD SWAP1 PUSH2 0xCE SWAP2 SWAP1 PUSH2 0x166A JUMP JUMPDEST PUSH2 0x22D JUMP JUMPDEST PUSH1 0x40 MLOAD PUSH2 0xE0 SWAP2 SWAP1 PUSH2 0x16B2 JUMP JUMPDEST PUSH1 0x40 MLOAD DUP1 SWAP2 SUB SWAP1 RETURN JUMPDEST PUSH2 0xF1 PUSH2 0x283 JUMP JUMPDEST PUSH1 0x40 MLOAD PUSH2 0xFE SWAP2 SWAP1 PUSH2 0x172C JUMP JUMPDEST PUSH1 0x40 MLOAD DUP1 SWAP2 SUB SWAP1 RETURN JUMPDEST PUSH2 0x10F PUSH2 0x2A9 JUMP JUMPDEST STOP JUMPDEST PUSH2 0x12B PUSH1 0x4 DUP1 CALLDATASIZE SUB DUP2 ADD SWAP1 PUSH2 0x126 SWAP2 SWAP1 PUSH2 0x177D JUMP JUMPDEST PUSH2 0x3D3 JUMP JUMPDEST STOP JUMPDEST PUSH2 0x147 PUSH1 0x4 DUP1 CALLDATASIZE SUB DUP2 ADD SWAP1 PUSH2 0x142 SWAP2 SWAP1 PUSH2 0x177D JUMP JUMPDEST PUSH2 0x5F6 JUMP JUMPDEST PUSH1 0x40 MLOAD PUSH2 0x159 SWAP7 SWAP6 SWAP5 SWAP4 SWAP3 SWAP2 SWAP1 PUSH2 0x1AD1 JUMP JUMPDEST PUSH1 0x40 MLOAD DUP1 SWAP2 SUB SWAP1 RETURN JUMPDEST PUSH2 0x17C PUSH1 0x4 DUP1 CALLDATASIZE SUB DUP2 ADD SWAP1 PUSH2 0x177 SWAP2 SWAP1 PUSH2 0x1E2C JUMP JUMPDEST PUSH2 0x8F0 JUMP JUMPDEST STOP JUMPDEST PUSH2 0x186 PUSH2 0xC2B JUMP JUMPDEST STOP JUMPDEST PUSH2 0x1A2 PUSH1 0x4 DUP1 CALLDATASIZE SUB DUP2 ADD SWAP1 PUSH2 0x19D SWAP2 SWAP1 PUSH2 0x1ED3 JUMP JUMPDEST PUSH2 0xC3F JUMP JUMPDEST PUSH1 0x40 MLOAD PUSH2 0x1B0 SWAP3 SWAP2 SWAP1 PUSH2 0x1F13 JUMP JUMPDEST PUSH1 0x40 MLOAD DUP1 SWAP2 SUB SWAP1 RETURN JUMPDEST PUSH2 0x1C1 PUSH2 0xDA3 JUMP JUMPDEST PUSH1 0x40 MLOAD PUSH2 0x1CE SWAP2 SWAP1 PUSH2 0x1F3C JUMP JUMPDEST PUSH1 0x40 MLOAD DUP1 SWAP2 SUB SWAP1 RETURN JUMPDEST PUSH2 0x1F1 PUSH1 0x4 DUP1 CALLDATASIZE SUB DUP2 ADD SWAP1 PUSH2 0x1EC SWAP2 SWAP1 PUSH2 0x1F57 JUMP JUMPDEST PUSH2 0xDCC JUMP JUMPDEST STOP JUMPDEST PUSH2 0x1FB PUSH2 0x11A0 JUMP JUMPDEST PUSH1 0x40 MLOAD PUSH2 0x208 SWAP2 SWAP1 PUSH2 0x1FA6 JUMP JUMPDEST PUSH1 0x40 MLOAD DUP1 SWAP2 SUB SWAP1 RETURN JUMPDEST PUSH2 0x22B PUSH1 0x4 DUP1 CALLDATASIZE SUB DUP2 ADD SWAP1 PUSH2 0x226 SWAP2 SWAP1 PUSH2 0x166A JUMP JUMPDEST PUSH2 0x11A6 JUMP JUMPDEST STOP JUMPDEST PUSH1 0x0 PUSH1 0x4 PUSH1 0x0 DUP4 PUSH20 0xFFFFFFFFFFFFFFFFFFFFFFFFFFFFFFFFFFFFFFFF AND PUSH20 0xFFFFFFFFFFFFFFFFFFFFFFFFFFFFFFFFFFFFFFFF AND DUP2 MSTORE PUSH1 0x20 ADD SWAP1 DUP2 MSTORE PUSH1 0x20 ADD PUSH1 0x0 KECCAK256 PUSH1 0x0 SWAP1 SLOAD SWAP1 PUSH2 0x100 EXP SWAP1 DIV PUSH1 0xFF AND SWAP1 POP SWAP2 SWAP1 POP JUMP JUMPDEST PUSH1 0x1 PUSH1 0x0 SWAP1 SLOAD SWAP1 PUSH2 0x100 EXP SWAP1 DIV PUSH20 0xFFFFFFFFFFFFFFFFFFFFFFFFFFFFFFFFFFFFFFFF AND DUP2 JUMP JUMPDEST PUSH1 0x4 PUSH1 0x0 CALLER PUSH20 0xFFFFFFFFFFFFFFFFFFFFFFFFFFFFFFFFFFFFFFFF AND PUSH20 0xFFFFFFFFFFFFFFFFFFFFFFFFFFFFFFFFFFFFFFFF AND DUP2 MSTORE PUSH1 0x20 ADD SWAP1 DUP2 MSTORE PUSH1 0x20 ADD PUSH1 0x0 KECCAK256 PUSH1 0x0 SWAP1 SLOAD SWAP1 PUSH2 0x100 EXP SWAP1 DIV PUSH1 0xFF AND ISZERO PUSH2 0x336 JUMPI PUSH1 0x40 MLOAD PUSH32 0x8C379A000000000000000000000000000000000000000000000000000000000 DUP2 MSTORE PUSH1 0x4 ADD PUSH2 0x32D SWAP1 PUSH2 0x200D JUMP JUMPDEST PUSH1 0x40 MLOAD DUP1 SWAP2 SUB SWAP1 REVERT JUMPDEST PUSH1 0x1 PUSH1 0x4 PUSH1 0x0 CALLER PUSH20 0xFFFFFFFFFFFFFFFFFFFFFFFFFFFFFFFFFFFFFFFF AND PUSH20 0xFFFFFFFFFFFFFFFFFFFFFFFFFFFFFFFFFFFFFFFF AND DUP2 MSTORE PUSH1 0x20 ADD SWAP1 DUP2 MSTORE PUSH1 0x20 ADD PUSH1 0x0 KECCAK256 PUSH1 0x0 PUSH2 0x100 EXP DUP2 SLOAD DUP2 PUSH1 0xFF MUL NOT AND SWAP1 DUP4 ISZERO ISZERO MUL OR SWAP1 SSTORE POP CALLER PUSH20 0xFFFFFFFFFFFFFFFFFFFFFFFFFFFFFFFFFFFFFFFF AND PUSH32 0x54DB7A5CB4735E1AAC1F53DB512D3390390BB6637BD30AD4BF9FC98667D9B9B9 PUSH1 0x40 MLOAD PUSH1 0x40 MLOAD DUP1 SWAP2 SUB SWAP1 LOG2 JUMP JUMPDEST PUSH1 0x2 SLOAD DUP2 LT PUSH2 0x417 JUMPI PUSH1 0x40 MLOAD PUSH32 0x8C379A000000000000000000000000000000000000000000000000000000000 DUP2 MSTORE PUSH1 0x4 ADD PUSH2 0x40E SWAP1 PUSH2 0x2079 JUMP JUMPDEST PUSH1 0x40 MLOAD DUP1 SWAP2 SUB SWAP1 REVERT JUMPDEST PUSH1 0x0 PUSH1 0x3 PUSH1 0x0 DUP4 DUP2 MSTORE PUSH1 0x20 ADD SWAP1 DUP2 MSTORE PUSH1 0x20 ADD PUSH1 0x0 KECCAK256 SWAP1 POP CALLER PUSH20 0xFFFFFFFFFFFFFFFFFFFFFFFFFFFFFFFFFFFFFFFF AND DUP2 PUSH1 0x5 ADD PUSH1 0x1 SWAP1 SLOAD SWAP1 PUSH2 0x100 EXP SWAP1 DIV PUSH20 0xFFFFFFFFFFFFFFFFFFFFFFFFFFFFFFFFFFFFFFFF AND PUSH20 0xFFFFFFFFFFFFFFFFFFFFFFFFFFFFFFFFFFFFFFFF AND EQ PUSH2 0x4C0 JUMPI PUSH1 0x40 MLOAD PUSH32 0x8C379A000000000000000000000000000000000000000000000000000000000 DUP2 MSTORE PUSH1 0x4 ADD PUSH2 0x4B7 SWAP1 PUSH2 0x20E5 JUMP JUMPDEST PUSH1 0x40 MLOAD DUP1 SWAP2 SUB SWAP1 REVERT JUMPDEST DUP1 PUSH1 0x5 ADD PUSH1 0x0 SWAP1 SLOAD SWAP1 PUSH2 0x100 EXP SWAP1 DIV PUSH1 0xFF AND PUSH2 0x511 JUMPI PUSH1 0x40 MLOAD PUSH32 0x8C379A000000000000000000000000000000000000000000000000000000000 DUP2 MSTORE PUSH1 0x4 ADD PUSH2 0x508 SWAP1 PUSH2 0x2151 JUMP JUMPDEST PUSH1 0x40 MLOAD DUP1 SWAP2 SUB SWAP1 REVERT JUMPDEST PUSH1 0x0 DUP2 PUSH1 0x5 ADD PUSH1 0x0 PUSH2 0x100 EXP DUP2 SLOAD DUP2 PUSH1 0xFF MUL NOT AND SWAP1 DUP4 ISZERO ISZERO MUL OR SWAP1 SSTORE POP PUSH1 0x1 PUSH1 0x0 SWAP1 SLOAD SWAP1 PUSH2 0x100 EXP SWAP1 DIV PUSH20 0xFFFFFFFFFFFFFFFFFFFFFFFFFFFFFFFFFFFFFFFF AND PUSH20 0xFFFFFFFFFFFFFFFFFFFFFFFFFFFFFFFFFFFFFFFF AND PUSH4 0x40C10F19 CALLER PUSH8 0x4563918244F40000 PUSH1 0x40 MLOAD DUP4 PUSH4 0xFFFFFFFF AND PUSH1 0xE0 SHL DUP2 MSTORE PUSH1 0x4 ADD PUSH2 0x593 SWAP3 SWAP2 SWAP1 PUSH2 0x21AC JUMP JUMPDEST PUSH1 0x0 PUSH1 0x40 MLOAD DUP1 DUP4 SUB DUP2 PUSH1 0x0 DUP8 DUP1 EXTCODESIZE ISZERO DUP1 ISZERO PUSH2 0x5AD JUMPI PUSH1 0x0 DUP1 REVERT JUMPDEST POP GAS CALL ISZERO DUP1 ISZERO PUSH2 0x5C1 JUMPI RETURNDATASIZE PUSH1 0x0 DUP1 RETURNDATACOPY RETURNDATASIZE PUSH1 0x0 REVERT JUMPDEST POP POP POP POP DUP2 PUSH32 0x9629C08265E29E042A1BEC87BD4F79E271C91DA7A6ADABD79A9CE2496BFCB3F0 PUSH1 0x40 MLOAD PUSH1 0x40 MLOAD DUP1 SWAP2 SUB SWAP1 LOG2 POP POP JUMP JUMPDEST PUSH1 0x60 DUP1 PUSH1 0x60 DUP1 PUSH1 0x0 DUP1 PUSH1 0x2 SLOAD DUP8 LT PUSH2 0x643 JUMPI PUSH1 0x40 MLOAD PUSH32 0x8C379A000000000000000000000000000000000000000000000000000000000 DUP2 MSTORE PUSH1 0x4 ADD PUSH2 0x63A SWAP1 PUSH2 0x2079 JUMP JUMPDEST PUSH1 0x40 MLOAD DUP1 SWAP2 SUB SWAP1 REVERT JUMPDEST PUSH1 0x0 PUSH1 0x3 PUSH1 0x0 DUP10 DUP2 MSTORE PUSH1 0x20 ADD SWAP1 DUP2 MSTORE PUSH1 0x20 ADD PUSH1 0x0 KECCAK256 SWAP1 POP DUP1 PUSH1 0x0 ADD DUP2 PUSH1 0x1 ADD DUP3 PUSH1 0x2 ADD DUP4 PUSH1 0x4 ADD DUP5 PUSH1 0x5 ADD PUSH1 0x0 SWAP1 SLOAD SWAP1 PUSH2 0x100 EXP SWAP1 DIV PUSH1 0xFF AND DUP6 PUSH1 0x5 ADD PUSH1 0x1 SWAP1 SLOAD SWAP1 PUSH2 0x100 EXP SWAP1 DIV PUSH20 0xFFFFFFFFFFFFFFFFFFFFFFFFFFFFFFFFFFFFFFFF AND DUP6 DUP1 SLOAD PUSH2 0x6AD SWAP1 PUSH2 0x2204 JUMP JUMPDEST DUP1 PUSH1 0x1F ADD PUSH1 0x20 DUP1 SWAP2 DIV MUL PUSH1 0x20 ADD PUSH1 0x40 MLOAD SWAP1 DUP2 ADD PUSH1 0x40 MSTORE DUP1 SWAP3 SWAP2 SWAP1 DUP2 DUP2 MSTORE PUSH1 0x20 ADD DUP3 DUP1 SLOAD PUSH2 0x6D9 SWAP1 PUSH2 0x2204 JUMP JUMPDEST DUP1 ISZERO PUSH2 0x726 JUMPI DUP1 PUSH1 0x1F LT PUSH2 0x6FB JUMPI PUSH2 0x100 DUP1 DUP4 SLOAD DIV MUL DUP4 MSTORE SWAP2 PUSH1 0x20 ADD SWAP2 PUSH2 0x726 JUMP JUMPDEST DUP3 ADD SWAP2 SWAP1 PUSH1 0x0 MSTORE PUSH1 0x20 PUSH1 0x0 KECCAK256 SWAP1 JUMPDEST DUP2 SLOAD DUP2 MSTORE SWAP1 PUSH1 0x1 ADD SWAP1 PUSH1 0x20 ADD DUP1 DUP4 GT PUSH2 0x709 JUMPI DUP3 SWAP1 SUB PUSH1 0x1F AND DUP3 ADD SWAP2 JUMPDEST POP POP POP POP POP SWAP6 POP DUP5 DUP1 SLOAD DUP1 PUSH1 0x20 MUL PUSH1 0x20 ADD PUSH1 0x40 MLOAD SWAP1 DUP2 ADD PUSH1 0x40 MSTORE DUP1 SWAP3 SWAP2 SWAP1 DUP2 DUP2 MSTORE PUSH1 0x20 ADD PUSH1 0x0 SWAP1 JUMPDEST DUP3 DUP3 LT ISZERO PUSH2 0x7FA JUMPI DUP4 DUP3 SWAP1 PUSH1 0x0 MSTORE PUSH1 0x20 PUSH1 0x0 KECCAK256 ADD DUP1 SLOAD PUSH2 0x76D SWAP1 PUSH2 0x2204 JUMP JUMPDEST DUP1 PUSH1 0x1F ADD PUSH1 0x20 DUP1 SWAP2 DIV MUL PUSH1 0x20 ADD PUSH1 0x40 MLOAD SWAP1 DUP2 ADD PUSH1 0x40 MSTORE DUP1 SWAP3 SWAP2 SWAP1 DUP2 DUP2 MSTORE PUSH1 0x20 ADD DUP3 DUP1 SLOAD PUSH2 0x799 SWAP1 PUSH2 0x2204 JUMP JUMPDEST DUP1 ISZERO PUSH2 0x7E6 JUMPI DUP1 PUSH1 0x1F LT PUSH2 0x7BB JUMPI PUSH2 0x100 DUP1 DUP4 SLOAD DIV MUL DUP4 MSTORE SWAP2 PUSH1 0x20 ADD SWAP2 PUSH2 0x7E6 JUMP JUMPDEST DUP3 ADD SWAP2 SWAP1 PUSH1 0x0 MSTORE PUSH1 0x20 PUSH1 0x0 KECCAK256 SWAP1 JUMPDEST DUP2 SLOAD DUP2 MSTORE SWAP1 PUSH1 0x1 ADD SWAP1 PUSH1 0x20 ADD DUP1 DUP4 GT PUSH2 0x7C9 JUMPI DUP3 SWAP1 SUB PUSH1 0x1F AND DUP3 ADD SWAP2 JUMPDEST POP POP POP POP POP DUP2 MSTORE PUSH1 0x20 ADD SWAP1 PUSH1 0x1 ADD SWAP1 PUSH2 0x74E JUMP JUMPDEST POP POP POP POP SWAP5 POP DUP4 DUP1 SLOAD DUP1 PUSH1 0x20 MUL PUSH1 0x20 ADD PUSH1 0x40 MLOAD SWAP1 DUP2 ADD PUSH1 0x40 MSTORE DUP1 SWAP3 SWAP2 SWAP1 DUP2 DUP2 MSTORE PUSH1 0x20 ADD DUP3 DUP1 SLOAD DUP1 ISZERO PUSH2 0x84B JUMPI PUSH1 0x20 MUL DUP3 ADD SWAP2 SWAP1 PUSH1 0x0 MSTORE PUSH1 0x20 PUSH1 0x0 KECCAK256 SWAP1 JUMPDEST DUP2 SLOAD DUP2 MSTORE PUSH1 0x20 ADD SWAP1 PUSH1 0x1 ADD SWAP1 DUP1 DUP4 GT PUSH2 0x837 JUMPI JUMPDEST POP POP POP POP POP SWAP4 POP DUP3 DUP1 SLOAD DUP1 PUSH1 0x20 MUL PUSH1 0x20 ADD PUSH1 0x40 MLOAD SWAP1 DUP2 ADD PUSH1 0x40 MSTORE DUP1 SWAP3 SWAP2 SWAP1 DUP2 DUP2 MSTORE PUSH1 0x20 ADD DUP3 DUP1 SLOAD DUP1 ISZERO PUSH2 0x8D3 JUMPI PUSH1 0x20 MUL DUP3 ADD SWAP2 SWAP1 PUSH1 0x0 MSTORE PUSH1 0x20 PUSH1 0x0 KECCAK256 SWAP1 JUMPDEST DUP2 PUSH1 0x0 SWAP1 SLOAD SWAP1 PUSH2 0x100 EXP SWAP1 DIV PUSH20 0xFFFFFFFFFFFFFFFFFFFFFFFFFFFFFFFFFFFFFFFF AND PUSH20 0xFFFFFFFFFFFFFFFFFFFFFFFFFFFFFFFFFFFFFFFF AND DUP2 MSTORE PUSH1 0x20 ADD SWAP1 PUSH1 0x1 ADD SWAP1 DUP1 DUP4 GT PUSH2 0x889 JUMPI JUMPDEST POP POP POP POP POP SWAP3 POP SWAP7 POP SWAP7 POP SWAP7 POP SWAP7 POP SWAP7 POP SWAP7 POP POP SWAP2 SWAP4 SWAP6 POP SWAP2 SWAP4 SWAP6 JUMP JUMPDEST PUSH1 0x4 PUSH1 0x0 CALLER PUSH20 0xFFFFFFFFFFFFFFFFFFFFFFFFFFFFFFFFFFFFFFFF AND PUSH20 0xFFFFFFFFFFFFFFFFFFFFFFFFFFFFFFFFFFFFFFFF AND DUP2 MSTORE PUSH1 0x20 ADD SWAP1 DUP2 MSTORE PUSH1 0x20 ADD PUSH1 0x0 KECCAK256 PUSH1 0x0 SWAP1 SLOAD SWAP1 PUSH2 0x100 EXP SWAP1 DIV PUSH1 0xFF AND PUSH2 0x97C JUMPI PUSH1 0x40 MLOAD PUSH32 0x8C379A000000000000000000000000000000000000000000000000000000000 DUP2 MSTORE PUSH1 0x4 ADD PUSH2 0x973 SWAP1 PUSH2 0x2281 JUMP JUMPDEST PUSH1 0x40 MLOAD DUP1 SWAP2 SUB SWAP1 REVERT JUMPDEST PUSH1 0x2 DUP3 MLOAD LT ISZERO PUSH2 0x9C1 JUMPI PUSH1 0x40 MLOAD PUSH32 0x8C379A000000000000000000000000000000000000000000000000000000000 DUP2 MSTORE PUSH1 0x4 ADD PUSH2 0x9B8 SWAP1 PUSH2 0x22ED JUMP JUMPDEST PUSH1 0x40 MLOAD DUP1 SWAP2 SUB SWAP1 REVERT JUMPDEST PUSH1 0x0 DUP2 MLOAD GT PUSH2 0xA05 JUMPI PUSH1 0x40 MLOAD PUSH32 0x8C379A000000000000000000000000000000000000000000000000000000000 DUP2 MSTORE PUSH1 0x4 ADD PUSH2 0x9FC SWAP1 PUSH2 0x2359 JUMP JUMPDEST PUSH1 0x40 MLOAD DUP1 SWAP2 SUB SWAP1 REVERT JUMPDEST PUSH1 0x0 PUSH1 0x3 PUSH1 0x0 PUSH1 0x2 SLOAD DUP2 MSTORE PUSH1 0x20 ADD SWAP1 DUP2 MSTORE PUSH1 0x20 ADD PUSH1 0x0 KECCAK256 SWAP1 POP DUP4 DUP2 PUSH1 0x0 ADD SWAP1 DUP2 PUSH2 0xA2F SWAP2 SWAP1 PUSH2 0x251B JUMP JUMPDEST POP DUP3 DUP2 PUSH1 0x1 ADD SWAP1 DUP1 MLOAD SWAP1 PUSH1 0x20 ADD SWAP1 PUSH2 0xA48 SWAP3 SWAP2 SWAP1 PUSH2 0x1447 JUMP JUMPDEST POP DUP3 MLOAD PUSH8 0xFFFFFFFFFFFFFFFF DUP2 GT ISZERO PUSH2 0xA64 JUMPI PUSH2 0xA63 PUSH2 0x1B58 JUMP JUMPDEST JUMPDEST PUSH1 0x40 MLOAD SWAP1 DUP1 DUP3 MSTORE DUP1 PUSH1 0x20 MUL PUSH1 0x20 ADD DUP3 ADD PUSH1 0x40 MSTORE DUP1 ISZERO PUSH2 0xA92 JUMPI DUP2 PUSH1 0x20 ADD PUSH1 0x20 DUP3 MUL DUP1 CALLDATASIZE DUP4 CALLDATACOPY DUP1 DUP3 ADD SWAP2 POP POP SWAP1 POP JUMPDEST POP DUP2 PUSH1 0x2 ADD SWAP1 DUP1 MLOAD SWAP1 PUSH1 0x20 ADD SWAP1 PUSH2 0xAAA SWAP3 SWAP2 SWAP1 PUSH2 0x14A0 JUMP JUMPDEST POP DUP2 DUP2 PUSH1 0x4 ADD SWAP1 DUP1 MLOAD SWAP1 PUSH1 0x20 ADD SWAP1 PUSH2 0xAC3 SWAP3 SWAP2 SWAP1 PUSH2 0x14ED JUMP JUMPDEST POP PUSH1 0x1 DUP2 PUSH1 0x5 ADD PUSH1 0x0 PUSH2 0x100 EXP DUP2 SLOAD DUP2 PUSH1 0xFF MUL NOT AND SWAP1 DUP4 ISZERO ISZERO MUL OR SWAP1 SSTORE POP CALLER DUP2 PUSH1 0x5 ADD PUSH1 0x1 PUSH2 0x100 EXP DUP2 SLOAD DUP2 PUSH20 0xFFFFFFFFFFFFFFFFFFFFFFFFFFFFFFFFFFFFFFFF MUL NOT AND SWAP1 DUP4 PUSH20 0xFFFFFFFFFFFFFFFFFFFFFFFFFFFFFFFFFFFFFFFF AND MUL OR SWAP1 SSTORE POP CALLER PUSH20 0xFFFFFFFFFFFFFFFFFFFFFFFFFFFFFFFFFFFFFFFF AND PUSH1 0x2 SLOAD PUSH32 0xB0EB434B18EB3F0D02F9B4B01D92BF397C2FDE355B0B3FAD98AA2A5FFD63C2C DUP7 PUSH1 0x40 MLOAD PUSH2 0xB6D SWAP2 SWAP1 PUSH2 0x25ED JUMP JUMPDEST PUSH1 0x40 MLOAD DUP1 SWAP2 SUB SWAP1 LOG3 PUSH1 0x2 PUSH1 0x0 DUP2 SLOAD DUP1 SWAP3 SWAP2 SWAP1 PUSH2 0xB88 SWAP1 PUSH2 0x263E JUMP JUMPDEST SWAP2 SWAP1 POP SSTORE POP PUSH1 0x1 PUSH1 0x0 SWAP1 SLOAD SWAP1 PUSH2 0x100 EXP SWAP1 DIV PUSH20 0xFFFFFFFFFFFFFFFFFFFFFFFFFFFFFFFFFFFFFFFF AND PUSH20 0xFFFFFFFFFFFFFFFFFFFFFFFFFFFFFFFFFFFFFFFF AND PUSH4 0x40C10F19 CALLER PUSH9 0x1158E460913D00000 PUSH1 0x40 MLOAD DUP4 PUSH4 0xFFFFFFFF AND PUSH1 0xE0 SHL DUP2 MSTORE PUSH1 0x4 ADD PUSH2 0xBF3 SWAP3 SWAP2 SWAP1 PUSH2 0x26C1 JUMP JUMPDEST PUSH1 0x0 PUSH1 0x40 MLOAD DUP1 DUP4 SUB DUP2 PUSH1 0x0 DUP8 DUP1 EXTCODESIZE ISZERO DUP1 ISZERO PUSH2 0xC0D JUMPI PUSH1 0x0 DUP1 REVERT JUMPDEST POP GAS CALL ISZERO DUP1 ISZERO PUSH2 0xC21 JUMPI RETURNDATASIZE PUSH1 0x0 DUP1 RETURNDATACOPY RETURNDATASIZE PUSH1 0x0 REVERT JUMPDEST POP POP POP POP POP POP POP POP JUMP JUMPDEST PUSH2 0xC33 PUSH2 0x122C JUMP JUMPDEST PUSH2 0xC3D PUSH1 0x0 PUSH2 0x12B3 JUMP JUMPDEST JUMP JUMPDEST PUSH1 0x0 DUP1 PUSH1 0x2 SLOAD DUP5 LT PUSH2 0xC86 JUMPI PUSH1 0x40 MLOAD PUSH32 0x8C379A000000000000000000000000000000000000000000000000000000000 DUP2 MSTORE PUSH1 0x4 ADD PUSH2 0xC7D SWAP1 PUSH2 0x2079 JUMP JUMPDEST PUSH1 0x40 MLOAD DUP1 SWAP2 SUB SWAP1 REVERT JUMPDEST PUSH1 0x0 PUSH1 0x3 PUSH1 0x0 DUP7 DUP2 MSTORE PUSH1 0x20 ADD SWAP1 DUP2 MSTORE PUSH1 0x20 ADD PUSH1 0x0 KECCAK256 SWAP1 POP PUSH1 0x0 DUP2 PUSH1 0x3 ADD PUSH1 0x0 DUP7 PUSH20 0xFFFFFFFFFFFFFFFFFFFFFFFFFFFFFFFFFFFFFFFF AND PUSH20 0xFFFFFFFFFFFFFFFFFFFFFFFFFFFFFFFFFFFFFFFF AND DUP2 MSTORE PUSH1 0x20 ADD SWAP1 DUP2 MSTORE PUSH1 0x20 ADD PUSH1 0x0 KECCAK256 PUSH1 0x0 SWAP1 SLOAD SWAP1 PUSH2 0x100 EXP SWAP1 DIV PUSH1 0xFF AND SWAP1 POP PUSH1 0x0 DUP1 JUMPDEST DUP4 PUSH1 0x4 ADD DUP1 SLOAD SWAP1 POP DUP2 LT ISZERO PUSH2 0xD92 JUMPI DUP7 PUSH20 0xFFFFFFFFFFFFFFFFFFFFFFFFFFFFFFFFFFFFFFFF AND DUP5 PUSH1 0x4 ADD DUP3 DUP2 SLOAD DUP2 LT PUSH2 0xD30 JUMPI PUSH2 0xD2F PUSH2 0x26EA JUMP JUMPDEST JUMPDEST SWAP1 PUSH1 0x0 MSTORE PUSH1 0x20 PUSH1 0x0 KECCAK256 ADD PUSH1 0x0 SWAP1 SLOAD SWAP1 PUSH2 0x100 EXP SWAP1 DIV PUSH20 0xFFFFFFFFFFFFFFFFFFFFFFFFFFFFFFFFFFFFFFFF AND PUSH20 0xFFFFFFFFFFFFFFFFFFFFFFFFFFFFFFFFFFFFFFFF AND SUB PUSH2 0xD7F JUMPI PUSH1 0x1 SWAP2 POP PUSH2 0xD92 JUMP JUMPDEST DUP1 DUP1 PUSH2 0xD8A SWAP1 PUSH2 0x263E JUMP JUMPDEST SWAP2 POP POP PUSH2 0xCF4 JUMP JUMPDEST POP DUP2 DUP2 SWAP5 POP SWAP5 POP POP POP POP SWAP3 POP SWAP3 SWAP1 POP JUMP JUMPDEST PUSH1 0x0 DUP1 PUSH1 0x0 SWAP1 SLOAD SWAP1 PUSH2 0x100 EXP SWAP1 DIV PUSH20 0xFFFFFFFFFFFFFFFFFFFFFFFFFFFFFFFFFFFFFFFF AND SWAP1 POP SWAP1 JUMP JUMPDEST PUSH1 0x2 SLOAD DUP3 LT PUSH2 0xE10 JUMPI PUSH1 0x40 MLOAD PUSH32 0x8C379A000000000000000000000000000000000000000000000000000000000 DUP2 MSTORE PUSH1 0x4 ADD PUSH2 0xE07 SWAP1 PUSH2 0x2079 JUMP JUMPDEST PUSH1 0x40 MLOAD DUP1 SWAP2 SUB SWAP1 REVERT JUMPDEST PUSH1 0x0 PUSH1 0x3 PUSH1 0x0 DUP5 DUP2 MSTORE PUSH1 0x20 ADD SWAP1 DUP2 MSTORE PUSH1 0x20 ADD PUSH1 0x0 KECCAK256 SWAP1 POP DUP1 PUSH1 0x5 ADD PUSH1 0x0 SWAP1 SLOAD SWAP1 PUSH2 0x100 EXP SWAP1 DIV PUSH1 0xFF AND PUSH2 0xE78 JUMPI PUSH1 0x40 MLOAD PUSH32 0x8C379A000000000000000000000000000000000000000000000000000000000 DUP2 MSTORE PUSH1 0x4 ADD PUSH2 0xE6F SWAP1 PUSH2 0x2765 JUMP JUMPDEST PUSH1 0x40 MLOAD DUP1 SWAP2 SUB SWAP1 REVERT JUMPDEST PUSH1 0x4 PUSH1 0x0 CALLER PUSH20 0xFFFFFFFFFFFFFFFFFFFFFFFFFFFFFFFFFFFFFFFF AND PUSH20 0xFFFFFFFFFFFFFFFFFFFFFFFFFFFFFFFFFFFFFFFF AND DUP2 MSTORE PUSH1 0x20 ADD SWAP1 DUP2 MSTORE PUSH1 0x20 ADD PUSH1 0x0 KECCAK256 PUSH1 0x0 SWAP1 SLOAD SWAP1 PUSH2 0x100 EXP SWAP1 DIV PUSH1 0xFF AND PUSH2 0xF04 JUMPI PUSH1 0x40 MLOAD PUSH32 0x8C379A000000000000000000000000000000000000000000000000000000000 DUP2 MSTORE PUSH1 0x4 ADD PUSH2 0xEFB SWAP1 PUSH2 0x2281 JUMP JUMPDEST PUSH1 0x40 MLOAD DUP1 SWAP2 SUB SWAP1 REVERT JUMPDEST DUP1 PUSH1 0x3 ADD PUSH1 0x0 CALLER PUSH20 0xFFFFFFFFFFFFFFFFFFFFFFFFFFFFFFFFFFFFFFFF AND PUSH20 0xFFFFFFFFFFFFFFFFFFFFFFFFFFFFFFFFFFFFFFFF AND DUP2 MSTORE PUSH1 0x20 ADD SWAP1 DUP2 MSTORE PUSH1 0x20 ADD PUSH1 0x0 KECCAK256 PUSH1 0x0 SWAP1 SLOAD SWAP1 PUSH2 0x100 EXP SWAP1 DIV PUSH1 0xFF AND ISZERO PUSH2 0xF93 JUMPI PUSH1 0x40 MLOAD PUSH32 0x8C379A000000000000000000000000000000000000000000000000000000000 DUP2 MSTORE PUSH1 0x4 ADD PUSH2 0xF8A SWAP1 PUSH2 0x27D1 JUMP JUMPDEST PUSH1 0x40 MLOAD DUP1 SWAP2 SUB SWAP1 REVERT JUMPDEST DUP1 PUSH1 0x1 ADD DUP1 SLOAD SWAP1 POP DUP3 LT PUSH2 0xFDC JUMPI PUSH1 0x40 MLOAD PUSH32 0x8C379A000000000000000000000000000000000000000000000000000000000 DUP2 MSTORE PUSH1 0x4 ADD PUSH2 0xFD3 SWAP1 PUSH2 0x283D JUMP JUMPDEST PUSH1 0x40 MLOAD DUP1 SWAP2 SUB SWAP1 REVERT JUMPDEST PUSH2 0xFE6 DUP4 CALLER PUSH2 0x1377 JUMP JUMPDEST PUSH2 0x1025 JUMPI PUSH1 0x40 MLOAD PUSH32 0x8C379A000000000000000000000000000000000000000000000000000000000 DUP2 MSTORE PUSH1 0x4 ADD PUSH2 0x101C SWAP1 PUSH2 0x28A9 JUMP JUMPDEST PUSH1 0x40 MLOAD DUP1 SWAP2 SUB SWAP1 REVERT JUMPDEST PUSH1 0x1 DUP2 PUSH1 0x3 ADD PUSH1 0x0 CALLER PUSH20 0xFFFFFFFFFFFFFFFFFFFFFFFFFFFFFFFFFFFFFFFF AND PUSH20 0xFFFFFFFFFFFFFFFFFFFFFFFFFFFFFFFFFFFFFFFF AND DUP2 MSTORE PUSH1 0x20 ADD SWAP1 DUP2 MSTORE PUSH1 0x20 ADD PUSH1 0x0 KECCAK256 PUSH1 0x0 PUSH2 0x100 EXP DUP2 SLOAD DUP2 PUSH1 0xFF MUL NOT AND SWAP1 DUP4 ISZERO ISZERO MUL OR SWAP1 SSTORE POP DUP1 PUSH1 0x2 ADD DUP3 DUP2 SLOAD DUP2 LT PUSH2 0x1095 JUMPI PUSH2 0x1094 PUSH2 0x26EA JUMP JUMPDEST JUMPDEST SWAP1 PUSH1 0x0 MSTORE PUSH1 0x20 PUSH1 0x0 KECCAK256 ADD PUSH1 0x0 DUP2 SLOAD DUP1 SWAP3 SWAP2 SWAP1 PUSH2 0x10B0 SWAP1 PUSH2 0x263E JUMP JUMPDEST SWAP2 SWAP1 POP SSTORE POP PUSH1 0x1 PUSH1 0x0 SWAP1 SLOAD SWAP1 PUSH2 0x100 EXP SWAP1 DIV PUSH20 0xFFFFFFFFFFFFFFFFFFFFFFFFFFFFFFFFFFFFFFFF AND PUSH20 0xFFFFFFFFFFFFFFFFFFFFFFFFFFFFFFFFFFFFFFFF AND PUSH4 0x40C10F19 CALLER PUSH8 0x8AC7230489E80000 PUSH1 0x40 MLOAD DUP4 PUSH4 0xFFFFFFFF AND PUSH1 0xE0 SHL DUP2 MSTORE PUSH1 0x4 ADD PUSH2 0x111A SWAP3 SWAP2 SWAP1 PUSH2 0x2904 JUMP JUMPDEST PUSH1 0x0 PUSH1 0x40 MLOAD DUP1 DUP4 SUB DUP2 PUSH1 0x0 DUP8 DUP1 EXTCODESIZE ISZERO DUP1 ISZERO PUSH2 0x1134 JUMPI PUSH1 0x0 DUP1 REVERT JUMPDEST POP GAS CALL ISZERO DUP1 ISZERO PUSH2 0x1148 JUMPI RETURNDATASIZE PUSH1 0x0 DUP1 RETURNDATACOPY RETURNDATASIZE PUSH1 0x0 REVERT JUMPDEST POP POP POP POP CALLER PUSH20 0xFFFFFFFFFFFFFFFFFFFFFFFFFFFFFFFFFFFFFFFF AND DUP4 PUSH32 0x1ABE610CF2BF87E57DCC1181FCF5AC0934E843D8344AB9EED6E86C799F62585E DUP5 PUSH1 0x40 MLOAD PUSH2 0x1193 SWAP2 SWAP1 PUSH2 0x1FA6 JUMP JUMPDEST PUSH1 0x40 MLOAD DUP1 SWAP2 SUB SWAP1 LOG3 POP POP POP JUMP JUMPDEST PUSH1 0x2 SLOAD DUP2 JUMP JUMPDEST PUSH2 0x11AE PUSH2 0x122C JUMP JUMPDEST PUSH1 0x0 PUSH20 0xFFFFFFFFFFFFFFFFFFFFFFFFFFFFFFFFFFFFFFFF AND DUP2 PUSH20 0xFFFFFFFFFFFFFFFFFFFFFFFFFFFFFFFFFFFFFFFF AND SUB PUSH2 0x1220 JUMPI PUSH1 0x0 PUSH1 0x40 MLOAD PUSH32 0x1E4FBDF700000000000000000000000000000000000000000000000000000000 DUP2 MSTORE PUSH1 0x4 ADD PUSH2 0x1217 SWAP2 SWAP1 PUSH2 0x1F3C JUMP JUMPDEST PUSH1 0x40 MLOAD DUP1 SWAP2 SUB SWAP1 REVERT JUMPDEST PUSH2 0x1229 DUP2 PUSH2 0x12B3 JUMP JUMPDEST POP JUMP JUMPDEST PUSH2 0x1234 PUSH2 0x143F JUMP JUMPDEST PUSH20 0xFFFFFFFFFFFFFFFFFFFFFFFFFFFFFFFFFFFFFFFF AND PUSH2 0x1252 PUSH2 0xDA3 JUMP JUMPDEST PUSH20 0xFFFFFFFFFFFFFFFFFFFFFFFFFFFFFFFFFFFFFFFF AND EQ PUSH2 0x12B1 JUMPI PUSH2 0x1275 PUSH2 0x143F JUMP JUMPDEST PUSH1 0x40 MLOAD PUSH32 0x118CDAA700000000000000000000000000000000000000000000000000000000 DUP2 MSTORE PUSH1 0x4 ADD PUSH2 0x12A8 SWAP2 SWAP1 PUSH2 0x1F3C JUMP JUMPDEST PUSH1 0x40 MLOAD DUP1 SWAP2 SUB SWAP1 REVERT JUMPDEST JUMP JUMPDEST PUSH1 0x0 DUP1 PUSH1 0x0 SWAP1 SLOAD SWAP1 PUSH2 0x100 EXP SWAP1 DIV PUSH20 0xFFFFFFFFFFFFFFFFFFFFFFFFFFFFFFFFFFFFFFFF AND SWAP1 POP DUP2 PUSH1 0x0 DUP1 PUSH2 0x100 EXP DUP2 SLOAD DUP2 PUSH20 0xFFFFFFFFFFFFFFFFFFFFFFFFFFFFFFFFFFFFFFFF MUL NOT AND SWAP1 DUP4 PUSH20 0xFFFFFFFFFFFFFFFFFFFFFFFFFFFFFFFFFFFFFFFF AND MUL OR SWAP1 SSTORE POP DUP2 PUSH20 0xFFFFFFFFFFFFFFFFFFFFFFFFFFFFFFFFFFFFFFFF AND DUP2 PUSH20 0xFFFFFFFFFFFFFFFFFFFFFFFFFFFFFFFFFFFFFFFF AND PUSH32 0x8BE0079C531659141344CD1FD0A4F28419497F9722A3DAAFE3B4186F6B6457E0 PUSH1 0x40 MLOAD PUSH1 0x40 MLOAD DUP1 SWAP2 SUB SWAP1 LOG3 POP POP JUMP JUMPDEST PUSH1 0x0 DUP1 PUSH1 0x3 PUSH1 0x0 DUP6 DUP2 MSTORE PUSH1 0x20 ADD SWAP1 DUP2 MSTORE PUSH1 0x20 ADD PUSH1 0x0 KECCAK256 SWAP1 POP PUSH1 0x0 JUMPDEST DUP2 PUSH1 0x4 ADD DUP1 SLOAD SWAP1 POP DUP2 LT ISZERO PUSH2 0x1432 JUMPI DUP4 PUSH20 0xFFFFFFFFFFFFFFFFFFFFFFFFFFFFFFFFFFFFFFFF AND DUP3 PUSH1 0x4 ADD DUP3 DUP2 SLOAD DUP2 LT PUSH2 0x13CE JUMPI PUSH2 0x13CD PUSH2 0x26EA JUMP JUMPDEST JUMPDEST SWAP1 PUSH1 0x0 MSTORE PUSH1 0x20 PUSH1 0x0 KECCAK256 ADD PUSH1 0x0 SWAP1 SLOAD SWAP1 PUSH2 0x100 EXP SWAP1 DIV PUSH20 0xFFFFFFFFFFFFFFFFFFFFFFFFFFFFFFFFFFFFFFFF AND PUSH20 0xFFFFFFFFFFFFFFFFFFFFFFFFFFFFFFFFFFFFFFFF AND SUB PUSH2 0x141F JUMPI PUSH1 0x1 SWAP3 POP POP POP PUSH2 0x1439 JUMP JUMPDEST DUP1 DUP1 PUSH2 0x142A SWAP1 PUSH2 0x263E JUMP JUMPDEST SWAP2 POP POP PUSH2 0x1392 JUMP JUMPDEST POP PUSH1 0x0 SWAP2 POP POP JUMPDEST SWAP3 SWAP2 POP POP JUMP JUMPDEST PUSH1 0x0 CALLER SWAP1 POP SWAP1 JUMP JUMPDEST DUP3 DUP1 SLOAD DUP3 DUP3 SSTORE SWAP1 PUSH1 0x0 MSTORE PUSH1 0x20 PUSH1 0x0 KECCAK256 SWAP1 DUP2 ADD SWAP3 DUP3 ISZERO PUSH2 0x148F JUMPI SWAP2 PUSH1 0x20 MUL DUP3 ADD JUMPDEST DUP3 DUP2 GT ISZERO PUSH2 0x148E JUMPI DUP3 MLOAD DUP3 SWAP1 DUP2 PUSH2 0x147E SWAP2 SWAP1 PUSH2 0x251B JUMP JUMPDEST POP SWAP2 PUSH1 0x20 ADD SWAP2 SWAP1 PUSH1 0x1 ADD SWAP1 PUSH2 0x1467 JUMP JUMPDEST JUMPDEST POP SWAP1 POP PUSH2 0x149C SWAP2 SWAP1 PUSH2 0x1577 JUMP JUMPDEST POP SWAP1 JUMP JUMPDEST DUP3 DUP1 SLOAD DUP3 DUP3 SSTORE SWAP1 PUSH1 0x0 MSTORE PUSH1 0x20 PUSH1 0x0 KECCAK256 SWAP1 DUP2 ADD SWAP3 DUP3 ISZERO PUSH2 0x14DC JUMPI SWAP2 PUSH1 0x20 MUL DUP3 ADD JUMPDEST DUP3 DUP2 GT ISZERO PUSH2 0x14DB JUMPI DUP3 MLOAD DUP3 SSTORE SWAP2 PUSH1 0x20 ADD SWAP2 SWAP1 PUSH1 0x1 ADD SWAP1 PUSH2 0x14C0 JUMP JUMPDEST JUMPDEST POP SWAP1 POP PUSH2 0x14E9 SWAP2 SWAP1 PUSH2 0x159B JUMP JUMPDEST POP SWAP1 JUMP JUMPDEST DUP3 DUP1 SLOAD DUP3 DUP3 SSTORE SWAP1 PUSH1 0x0 MSTORE PUSH1 0x20 PUSH1 0x0 KECCAK256 SWAP1 DUP2 ADD SWAP3 DUP3 ISZERO PUSH2 0x1566 JUMPI SWAP2 PUSH1 0x20 MUL DUP3 ADD JUMPDEST DUP3 DUP2 GT ISZERO PUSH2 0x1565 JUMPI DUP3 MLOAD DUP3 PUSH1 0x0 PUSH2 0x100 EXP DUP2 SLOAD DUP2 PUSH20 0xFFFFFFFFFFFFFFFFFFFFFFFFFFFFFFFFFFFFFFFF MUL NOT AND SWAP1 DUP4 PUSH20 0xFFFFFFFFFFFFFFFFFFFFFFFFFFFFFFFFFFFFFFFF AND MUL OR SWAP1 SSTORE POP SWAP2 PUSH1 0x20 ADD SWAP2 SWAP1 PUSH1 0x1 ADD SWAP1 PUSH2 0x150D JUMP JUMPDEST JUMPDEST POP SWAP1 POP PUSH2 0x1573 SWAP2 SWAP1 PUSH2 0x159B JUMP JUMPDEST POP SWAP1 JUMP JUMPDEST JUMPDEST DUP1 DUP3 GT ISZERO PUSH2 0x1597 JUMPI PUSH1 0x0 DUP2 DUP2 PUSH2 0x158E SWAP2 SWAP1 PUSH2 0x15B8 JUMP JUMPDEST POP PUSH1 0x1 ADD PUSH2 0x1578 JUMP JUMPDEST POP SWAP1 JUMP JUMPDEST JUMPDEST DUP1 DUP3 GT ISZERO PUSH2 0x15B4 JUMPI PUSH1 0x0 DUP2 PUSH1 0x0 SWAP1 SSTORE POP PUSH1 0x1 ADD PUSH2 0x159C JUMP JUMPDEST POP SWAP1 JUMP JUMPDEST POP DUP1 SLOAD PUSH2 0x15C4 SWAP1 PUSH2 0x2204 JUMP JUMPDEST PUSH1 0x0 DUP3 SSTORE DUP1 PUSH1 0x1F LT PUSH2 0x15D6 JUMPI POP PUSH2 0x15F5 JUMP JUMPDEST PUSH1 0x1F ADD PUSH1 0x20 SWAP1 DIV SWAP1 PUSH1 0x0 MSTORE PUSH1 0x20 PUSH1 0x0 KECCAK256 SWAP1 DUP2 ADD SWAP1 PUSH2 0x15F4 SWAP2 SWAP1 PUSH2 0x159B JUMP JUMPDEST JUMPDEST POP JUMP JUMPDEST PUSH1 0x0 PUSH1 0x40 MLOAD SWAP1 POP SWAP1 JUMP JUMPDEST PUSH1 0x0 DUP1 REVERT JUMPDEST PUSH1 0x0 DUP1 REVERT JUMPDEST PUSH1 0x0 PUSH20 0xFFFFFFFFFFFFFFFFFFFFFFFFFFFFFFFFFFFFFFFF DUP3 AND SWAP1 POP SWAP2 SWAP1 POP JUMP JUMPDEST PUSH1 0x0 PUSH2 0x1637 DUP3 PUSH2 0x160C JUMP JUMPDEST SWAP1 POP SWAP2 SWAP1 POP JUMP JUMPDEST PUSH2 0x1647 DUP2 PUSH2 0x162C JUMP JUMPDEST DUP2 EQ PUSH2 0x1652 JUMPI PUSH1 0x0 DUP1 REVERT JUMPDEST POP JUMP JUMPDEST PUSH1 0x0 DUP2 CALLDATALOAD SWAP1 POP PUSH2 0x1664 DUP2 PUSH2 0x163E JUMP JUMPDEST SWAP3 SWAP2 POP POP JUMP JUMPDEST PUSH1 0x0 PUSH1 0x20 DUP3 DUP5 SUB SLT ISZERO PUSH2 0x1680 JUMPI PUSH2 0x167F PUSH2 0x1602 JUMP JUMPDEST JUMPDEST PUSH1 0x0 PUSH2 0x168E DUP5 DUP3 DUP6 ADD PUSH2 0x1655 JUMP JUMPDEST SWAP2 POP POP SWAP3 SWAP2 POP POP JUMP JUMPDEST PUSH1 0x0 DUP2 ISZERO ISZERO SWAP1 POP SWAP2 SWAP1 POP JUMP JUMPDEST PUSH2 0x16AC DUP2 PUSH2 0x1697 JUMP JUMPDEST DUP3 MSTORE POP POP JUMP JUMPDEST PUSH1 0x0 PUSH1 0x20 DUP3 ADD SWAP1 POP PUSH2 0x16C7 PUSH1 0x0 DUP4 ADD DUP5 PUSH2 0x16A3 JUMP JUMPDEST SWAP3 SWAP2 POP POP JUMP JUMPDEST PUSH1 0x0 DUP2 SWAP1 POP SWAP2 SWAP1 POP JUMP JUMPDEST PUSH1 0x0 PUSH2 0x16F2 PUSH2 0x16ED PUSH2 0x16E8 DUP5 PUSH2 0x160C JUMP JUMPDEST PUSH2 0x16CD JUMP JUMPDEST PUSH2 0x160C JUMP JUMPDEST SWAP1 POP SWAP2 SWAP1 POP JUMP JUMPDEST PUSH1 0x0 PUSH2 0x1704 DUP3 PUSH2 0x16D7 JUMP JUMPDEST SWAP1 POP SWAP2 SWAP1 POP JUMP JUMPDEST PUSH1 0x0 PUSH2 0x1716 DUP3 PUSH2 0x16F9 JUMP JUMPDEST SWAP1 POP SWAP2 SWAP1 POP JUMP JUMPDEST PUSH2 0x1726 DUP2 PUSH2 0x170B JUMP JUMPDEST DUP3 MSTORE POP POP JUMP JUMPDEST PUSH1 0x0 PUSH1 0x20 DUP3 ADD SWAP1 POP PUSH2 0x1741 PUSH1 0x0 DUP4 ADD DUP5 PUSH2 0x171D JUMP JUMPDEST SWAP3 SWAP2 POP POP JUMP JUMPDEST PUSH1 0x0 DUP2 SWAP1 POP SWAP2 SWAP1 POP JUMP JUMPDEST PUSH2 0x175A DUP2 PUSH2 0x1747 JUMP JUMPDEST DUP2 EQ PUSH2 0x1765 JUMPI PUSH1 0x0 DUP1 REVERT JUMPDEST POP JUMP JUMPDEST PUSH1 0x0 DUP2 CALLDATALOAD SWAP1 POP PUSH2 0x1777 DUP2 PUSH2 0x1751 JUMP JUMPDEST SWAP3 SWAP2 POP POP JUMP JUMPDEST PUSH1 0x0 PUSH1 0x20 DUP3 DUP5 SUB SLT ISZERO PUSH2 0x1793 JUMPI PUSH2 0x1792 PUSH2 0x1602 JUMP JUMPDEST JUMPDEST PUSH1 0x0 PUSH2 0x17A1 DUP5 DUP3 DUP6 ADD PUSH2 0x1768 JUMP JUMPDEST SWAP2 POP POP SWAP3 SWAP2 POP POP JUMP JUMPDEST PUSH1 0x0 DUP2 MLOAD SWAP1 POP SWAP2 SWAP1 POP JUMP JUMPDEST PUSH1 0x0 DUP3 DUP3 MSTORE PUSH1 0x20 DUP3 ADD SWAP1 POP SWAP3 SWAP2 POP POP JUMP JUMPDEST PUSH1 0x0 JUMPDEST DUP4 DUP2 LT ISZERO PUSH2 0x17E4 JUMPI DUP1 DUP3 ADD MLOAD DUP2 DUP5 ADD MSTORE PUSH1 0x20 DUP2 ADD SWAP1 POP PUSH2 0x17C9 JUMP JUMPDEST PUSH1 0x0 DUP5 DUP5 ADD MSTORE POP POP POP POP JUMP JUMPDEST PUSH1 0x0 PUSH1 0x1F NOT PUSH1 0x1F DUP4 ADD AND SWAP1 POP SWAP2 SWAP1 POP JUMP JUMPDEST PUSH1 0x0 PUSH2 0x180C DUP3 PUSH2 0x17AA JUMP JUMPDEST PUSH2 0x1816 DUP2 DUP6 PUSH2 0x17B5 JUMP JUMPDEST SWAP4 POP PUSH2 0x1826 DUP2 DUP6 PUSH1 0x20 DUP7 ADD PUSH2 0x17C6 JUMP JUMPDEST PUSH2 0x182F DUP2 PUSH2 0x17F0 JUMP JUMPDEST DUP5 ADD SWAP2 POP POP SWAP3 SWAP2 POP POP JUMP JUMPDEST PUSH1 0x0 DUP2 MLOAD SWAP1 POP SWAP2 SWAP1 POP JUMP JUMPDEST PUSH1 0x0 DUP3 DUP3 MSTORE PUSH1 0x20 DUP3 ADD SWAP1 POP SWAP3 SWAP2 POP POP JUMP JUMPDEST PUSH1 0x0 DUP2 SWAP1 POP PUSH1 0x20 DUP3 ADD SWAP1 POP SWAP2 SWAP1 POP JUMP JUMPDEST PUSH1 0x0 DUP3 DUP3 MSTORE PUSH1 0x20 DUP3 ADD SWAP1 POP SWAP3 SWAP2 POP POP JUMP JUMPDEST PUSH1 0x0 PUSH2 0x1882 DUP3 PUSH2 0x17AA JUMP JUMPDEST PUSH2 0x188C DUP2 DUP6 PUSH2 0x1866 JUMP JUMPDEST SWAP4 POP PUSH2 0x189C DUP2 DUP6 PUSH1 0x20 DUP7 ADD PUSH2 0x17C6 JUMP JUMPDEST PUSH2 0x18A5 DUP2 PUSH2 0x17F0 JUMP JUMPDEST DUP5 ADD SWAP2 POP POP SWAP3 SWAP2 POP POP JUMP JUMPDEST PUSH1 0x0 PUSH2 0x18BC DUP4 DUP4 PUSH2 0x1877 JUMP JUMPDEST SWAP1 POP SWAP3 SWAP2 POP POP JUMP JUMPDEST PUSH1 0x0 PUSH1 0x20 DUP3 ADD SWAP1 POP SWAP2 SWAP1 POP JUMP JUMPDEST PUSH1 0x0 PUSH2 0x18DC DUP3 PUSH2 0x183A JUMP JUMPDEST PUSH2 0x18E6 DUP2 DUP6 PUSH2 0x1845 JUMP JUMPDEST SWAP4 POP DUP4 PUSH1 0x20 DUP3 MUL DUP6 ADD PUSH2 0x18F8 DUP6 PUSH2 0x1856 JUMP JUMPDEST DUP1 PUSH1 0x0 JUMPDEST DUP6 DUP2 LT ISZERO PUSH2 0x1934 JUMPI DUP5 DUP5 SUB DUP10 MSTORE DUP2 MLOAD PUSH2 0x1915 DUP6 DUP3 PUSH2 0x18B0 JUMP JUMPDEST SWAP5 POP PUSH2 0x1920 DUP4 PUSH2 0x18C4 JUMP JUMPDEST SWAP3 POP PUSH1 0x20 DUP11 ADD SWAP10 POP POP PUSH1 0x1 DUP2 ADD SWAP1 POP PUSH2 0x18FC JUMP JUMPDEST POP DUP3 SWAP8 POP DUP8 SWAP6 POP POP POP POP POP POP SWAP3 SWAP2 POP POP JUMP JUMPDEST PUSH1 0x0 DUP2 MLOAD SWAP1 POP SWAP2 SWAP1 POP JUMP JUMPDEST PUSH1 0x0 DUP3 DUP3 MSTORE PUSH1 0x20 DUP3 ADD SWAP1 POP SWAP3 SWAP2 POP POP JUMP JUMPDEST PUSH1 0x0 DUP2 SWAP1 POP PUSH1 0x20 DUP3 ADD SWAP1 POP SWAP2 SWAP1 POP JUMP JUMPDEST PUSH2 0x197B DUP2 PUSH2 0x1747 JUMP JUMPDEST DUP3 MSTORE POP POP JUMP JUMPDEST PUSH1 0x0 PUSH2 0x198D DUP4 DUP4 PUSH2 0x1972 JUMP JUMPDEST PUSH1 0x20 DUP4 ADD SWAP1 POP SWAP3 SWAP2 POP POP JUMP JUMPDEST PUSH1 0x0 PUSH1 0x20 DUP3 ADD SWAP1 POP SWAP2 SWAP1 POP JUMP JUMPDEST PUSH1 0x0 PUSH2 0x19B1 DUP3 PUSH2 0x1946 JUMP JUMPDEST PUSH2 0x19BB DUP2 DUP6 PUSH2 0x1951 JUMP JUMPDEST SWAP4 POP PUSH2 0x19C6 DUP4 PUSH2 0x1962 JUMP JUMPDEST DUP1 PUSH1 0x0 JUMPDEST DUP4 DUP2 LT ISZERO PUSH2 0x19F7 JUMPI DUP2 MLOAD PUSH2 0x19DE DUP9 DUP3 PUSH2 0x1981 JUMP JUMPDEST SWAP8 POP PUSH2 0x19E9 DUP4 PUSH2 0x1999 JUMP JUMPDEST SWAP3 POP POP PUSH1 0x1 DUP2 ADD SWAP1 POP PUSH2 0x19CA JUMP JUMPDEST POP DUP6 SWAP4 POP POP POP POP SWAP3 SWAP2 POP POP JUMP JUMPDEST PUSH1 0x0 DUP2 MLOAD SWAP1 POP SWAP2 SWAP1 POP JUMP JUMPDEST PUSH1 0x0 DUP3 DUP3 MSTORE PUSH1 0x20 DUP3 ADD SWAP1 POP SWAP3 SWAP2 POP POP JUMP JUMPDEST PUSH1 0x0 DUP2 SWAP1 POP PUSH1 0x20 DUP3 ADD SWAP1 POP SWAP2 SWAP1 POP JUMP JUMPDEST PUSH2 0x1A39 DUP2 PUSH2 0x162C JUMP JUMPDEST DUP3 MSTORE POP POP JUMP JUMPDEST PUSH1 0x0 PUSH2 0x1A4B DUP4 DUP4 PUSH2 0x1A30 JUMP JUMPDEST PUSH1 0x20 DUP4 ADD SWAP1 POP SWAP3 SWAP2 POP POP JUMP JUMPDEST PUSH1 0x0 PUSH1 0x20 DUP3 ADD SWAP1 POP SWAP2 SWAP1 POP JUMP JUMPDEST PUSH1 0x0 PUSH2 0x1A6F DUP3 PUSH2 0x1A04 JUMP JUMPDEST PUSH2 0x1A79 DUP2 DUP6 PUSH2 0x1A0F JUMP JUMPDEST SWAP4 POP PUSH2 0x1A84 DUP4 PUSH2 0x1A20 JUMP JUMPDEST DUP1 PUSH1 0x0 JUMPDEST DUP4 DUP2 LT ISZERO PUSH2 0x1AB5 JUMPI DUP2 MLOAD PUSH2 0x1A9C DUP9 DUP3 PUSH2 0x1A3F JUMP JUMPDEST SWAP8 POP PUSH2 0x1AA7 DUP4 PUSH2 0x1A57 JUMP JUMPDEST SWAP3 POP POP PUSH1 0x1 DUP2 ADD SWAP1 POP PUSH2 0x1A88 JUMP JUMPDEST POP DUP6 SWAP4 POP POP POP POP SWAP3 SWAP2 POP POP JUMP JUMPDEST PUSH2 0x1ACB DUP2 PUSH2 0x162C JUMP JUMPDEST DUP3 MSTORE POP POP JUMP JUMPDEST PUSH1 0x0 PUSH1 0xC0 DUP3 ADD SWAP1 POP DUP2 DUP2 SUB PUSH1 0x0 DUP4 ADD MSTORE PUSH2 0x1AEB DUP2 DUP10 PUSH2 0x1801 JUMP JUMPDEST SWAP1 POP DUP2 DUP2 SUB PUSH1 0x20 DUP4 ADD MSTORE PUSH2 0x1AFF DUP2 DUP9 PUSH2 0x18D1 JUMP JUMPDEST SWAP1 POP DUP2 DUP2 SUB PUSH1 0x40 DUP4 ADD MSTORE PUSH2 0x1B13 DUP2 DUP8 PUSH2 0x19A6 JUMP JUMPDEST SWAP1 POP DUP2 DUP2 SUB PUSH1 0x60 DUP4 ADD MSTORE PUSH2 0x1B27 DUP2 DUP7 PUSH2 0x1A64 JUMP JUMPDEST SWAP1 POP PUSH2 0x1B36 PUSH1 0x80 DUP4 ADD DUP6 PUSH2 0x16A3 JUMP JUMPDEST PUSH2 0x1B43 PUSH1 0xA0 DUP4 ADD DUP5 PUSH2 0x1AC2 JUMP JUMPDEST SWAP8 SWAP7 POP POP POP POP POP POP POP JUMP JUMPDEST PUSH1 0x0 DUP1 REVERT JUMPDEST PUSH1 0x0 DUP1 REVERT JUMPDEST PUSH32 0x4E487B7100000000000000000000000000000000000000000000000000000000 PUSH1 0x0 MSTORE PUSH1 0x41 PUSH1 0x4 MSTORE PUSH1 0x24 PUSH1 0x0 REVERT JUMPDEST PUSH2 0x1B90 DUP3 PUSH2 0x17F0 JUMP JUMPDEST DUP2 ADD DUP2 DUP2 LT PUSH8 0xFFFFFFFFFFFFFFFF DUP3 GT OR ISZERO PUSH2 0x1BAF JUMPI PUSH2 0x1BAE PUSH2 0x1B58 JUMP JUMPDEST JUMPDEST DUP1 PUSH1 0x40 MSTORE POP POP POP JUMP JUMPDEST PUSH1 0x0 PUSH2 0x1BC2 PUSH2 0x15F8 JUMP JUMPDEST SWAP1 POP PUSH2 0x1BCE DUP3 DUP3 PUSH2 0x1B87 JUMP JUMPDEST SWAP2 SWAP1 POP JUMP JUMPDEST PUSH1 0x0 PUSH8 0xFFFFFFFFFFFFFFFF DUP3 GT ISZERO PUSH2 0x1BEE JUMPI PUSH2 0x1BED PUSH2 0x1B58 JUMP JUMPDEST JUMPDEST PUSH2 0x1BF7 DUP3 PUSH2 0x17F0 JUMP JUMPDEST SWAP1 POP PUSH1 0x20 DUP2 ADD SWAP1 POP SWAP2 SWAP1 POP JUMP JUMPDEST DUP3 DUP2 DUP4 CALLDATACOPY PUSH1 0x0 DUP4 DUP4 ADD MSTORE POP POP POP JUMP JUMPDEST PUSH1 0x0 PUSH2 0x1C26 PUSH2 0x1C21 DUP5 PUSH2 0x1BD3 JUMP JUMPDEST PUSH2 0x1BB8 JUMP JUMPDEST SWAP1 POP DUP3 DUP2 MSTORE PUSH1 0x20 DUP2 ADD DUP5 DUP5 DUP5 ADD GT ISZERO PUSH2 0x1C42 JUMPI PUSH2 0x1C41 PUSH2 0x1B53 JUMP JUMPDEST JUMPDEST PUSH2 0x1C4D DUP5 DUP3 DUP6 PUSH2 0x1C04 JUMP JUMPDEST POP SWAP4 SWAP3 POP POP POP JUMP JUMPDEST PUSH1 0x0 DUP3 PUSH1 0x1F DUP4 ADD SLT PUSH2 0x1C6A JUMPI PUSH2 0x1C69 PUSH2 0x1B4E JUMP JUMPDEST JUMPDEST DUP2 CALLDATALOAD PUSH2 0x1C7A DUP5 DUP3 PUSH1 0x20 DUP7 ADD PUSH2 0x1C13 JUMP JUMPDEST SWAP2 POP POP SWAP3 SWAP2 POP POP JUMP JUMPDEST PUSH1 0x0 PUSH8 0xFFFFFFFFFFFFFFFF DUP3 GT ISZERO PUSH2 0x1C9E JUMPI PUSH2 0x1C9D PUSH2 0x1B58 JUMP JUMPDEST JUMPDEST PUSH1 0x20 DUP3 MUL SWAP1 POP PUSH1 0x20 DUP2 ADD SWAP1 POP SWAP2 SWAP1 POP JUMP JUMPDEST PUSH1 0x0 DUP1 REVERT JUMPDEST PUSH1 0x0 PUSH2 0x1CC7 PUSH2 0x1CC2 DUP5 PUSH2 0x1C83 JUMP JUMPDEST PUSH2 0x1BB8 JUMP JUMPDEST SWAP1 POP DUP1 DUP4 DUP3 MSTORE PUSH1 0x20 DUP3 ADD SWAP1 POP PUSH1 0x20 DUP5 MUL DUP4 ADD DUP6 DUP2 GT ISZERO PUSH2 0x1CEA JUMPI PUSH2 0x1CE9 PUSH2 0x1CAF JUMP JUMPDEST JUMPDEST DUP4 JUMPDEST DUP2 DUP2 LT ISZERO PUSH2 0x1D31 JUMPI DUP1 CALLDATALOAD PUSH8 0xFFFFFFFFFFFFFFFF DUP2 GT ISZERO PUSH2 0x1D0F JUMPI PUSH2 0x1D0E PUSH2 0x1B4E JUMP JUMPDEST JUMPDEST DUP1 DUP7 ADD PUSH2 0x1D1C DUP10 DUP3 PUSH2 0x1C55 JUMP JUMPDEST DUP6 MSTORE PUSH1 0x20 DUP6 ADD SWAP5 POP POP POP PUSH1 0x20 DUP2 ADD SWAP1 POP PUSH2 0x1CEC JUMP JUMPDEST POP POP POP SWAP4 SWAP3 POP POP POP JUMP JUMPDEST PUSH1 0x0 DUP3 PUSH1 0x1F DUP4 ADD SLT PUSH2 0x1D50 JUMPI PUSH2 0x1D4F PUSH2 0x1B4E JUMP JUMPDEST JUMPDEST DUP2 CALLDATALOAD PUSH2 0x1D60 DUP5 DUP3 PUSH1 0x20 DUP7 ADD PUSH2 0x1CB4 JUMP JUMPDEST SWAP2 POP POP SWAP3 SWAP2 POP POP JUMP JUMPDEST PUSH1 0x0 PUSH8 0xFFFFFFFFFFFFFFFF DUP3 GT ISZERO PUSH2 0x1D84 JUMPI PUSH2 0x1D83 PUSH2 0x1B58 JUMP JUMPDEST JUMPDEST PUSH1 0x20 DUP3 MUL SWAP1 POP PUSH1 0x20 DUP2 ADD SWAP1 POP SWAP2 SWAP1 POP JUMP JUMPDEST PUSH1 0x0 PUSH2 0x1DA8 PUSH2 0x1DA3 DUP5 PUSH2 0x1D69 JUMP JUMPDEST PUSH2 0x1BB8 JUMP JUMPDEST SWAP1 POP DUP1 DUP4 DUP3 MSTORE PUSH1 0x20 DUP3 ADD SWAP1 POP PUSH1 0x20 DUP5 MUL DUP4 ADD DUP6 DUP2 GT ISZERO PUSH2 0x1DCB JUMPI PUSH2 0x1DCA PUSH2 0x1CAF JUMP JUMPDEST JUMPDEST DUP4 JUMPDEST DUP2 DUP2 LT ISZERO PUSH2 0x1DF4 JUMPI DUP1 PUSH2 0x1DE0 DUP9 DUP3 PUSH2 0x1655 JUMP JUMPDEST DUP5 MSTORE PUSH1 0x20 DUP5 ADD SWAP4 POP POP PUSH1 0x20 DUP2 ADD SWAP1 POP PUSH2 0x1DCD JUMP JUMPDEST POP POP POP SWAP4 SWAP3 POP POP POP JUMP JUMPDEST PUSH1 0x0 DUP3 PUSH1 0x1F DUP4 ADD SLT PUSH2 0x1E13 JUMPI PUSH2 0x1E12 PUSH2 0x1B4E JUMP JUMPDEST JUMPDEST DUP2 CALLDATALOAD PUSH2 0x1E23 DUP5 DUP3 PUSH1 0x20 DUP7 ADD PUSH2 0x1D95 JUMP JUMPDEST SWAP2 POP POP SWAP3 SWAP2 POP POP JUMP JUMPDEST PUSH1 0x0 DUP1 PUSH1 0x0 PUSH1 0x60 DUP5 DUP7 SUB SLT ISZERO PUSH2 0x1E45 JUMPI PUSH2 0x1E44 PUSH2 0x1602 JUMP JUMPDEST JUMPDEST PUSH1 0x0 DUP5 ADD CALLDATALOAD PUSH8 0xFFFFFFFFFFFFFFFF DUP2 GT ISZERO PUSH2 0x1E63 JUMPI PUSH2 0x1E62 PUSH2 0x1607 JUMP JUMPDEST JUMPDEST PUSH2 0x1E6F DUP7 DUP3 DUP8 ADD PUSH2 0x1C55 JUMP JUMPDEST SWAP4 POP POP PUSH1 0x20 DUP5 ADD CALLDATALOAD PUSH8 0xFFFFFFFFFFFFFFFF DUP2 GT ISZERO PUSH2 0x1E90 JUMPI PUSH2 0x1E8F PUSH2 0x1607 JUMP JUMPDEST JUMPDEST PUSH2 0x1E9C DUP7 DUP3 DUP8 ADD PUSH2 0x1D3B JUMP JUMPDEST SWAP3 POP POP PUSH1 0x40 DUP5 ADD CALLDATALOAD PUSH8 0xFFFFFFFFFFFFFFFF DUP2 GT ISZERO PUSH2 0x1EBD JUMPI PUSH2 0x1EBC PUSH2 0x1607 JUMP JUMPDEST JUMPDEST PUSH2 0x1EC9 DUP7 DUP3 DUP8 ADD PUSH2 0x1DFE JUMP JUMPDEST SWAP2 POP POP SWAP3 POP SWAP3 POP SWAP3 JUMP JUMPDEST PUSH1 0x0 DUP1 PUSH1 0x40 DUP4 DUP6 SUB SLT ISZERO PUSH2 0x1EEA JUMPI PUSH2 0x1EE9 PUSH2 0x1602 JUMP JUMPDEST JUMPDEST PUSH1 0x0 PUSH2 0x1EF8 DUP6 DUP3 DUP7 ADD PUSH2 0x1768 JUMP JUMPDEST SWAP3 POP POP PUSH1 0x20 PUSH2 0x1F09 DUP6 DUP3 DUP7 ADD PUSH2 0x1655 JUMP JUMPDEST SWAP2 POP POP SWAP3 POP SWAP3 SWAP1 POP JUMP JUMPDEST PUSH1 0x0 PUSH1 0x40 DUP3 ADD SWAP1 POP PUSH2 0x1F28 PUSH1 0x0 DUP4 ADD DUP6 PUSH2 0x16A3 JUMP JUMPDEST PUSH2 0x1F35 PUSH1 0x20 DUP4 ADD DUP5 PUSH2 0x16A3 JUMP JUMPDEST SWAP4 SWAP3 POP POP POP JUMP JUMPDEST PUSH1 0x0 PUSH1 0x20 DUP3 ADD SWAP1 POP PUSH2 0x1F51 PUSH1 0x0 DUP4 ADD DUP5 PUSH2 0x1AC2 JUMP JUMPDEST SWAP3 SWAP2 POP POP JUMP JUMPDEST PUSH1 0x0 DUP1 PUSH1 0x40 DUP4 DUP6 SUB SLT ISZERO PUSH2 0x1F6E JUMPI PUSH2 0x1F6D PUSH2 0x1602 JUMP JUMPDEST JUMPDEST PUSH1 0x0 PUSH2 0x1F7C DUP6 DUP3 DUP7 ADD PUSH2 0x1768 JUMP JUMPDEST SWAP3 POP POP PUSH1 0x20 PUSH2 0x1F8D DUP6 DUP3 DUP7 ADD PUSH2 0x1768 JUMP JUMPDEST SWAP2 POP POP SWAP3 POP SWAP3 SWAP1 POP JUMP JUMPDEST PUSH2 0x1FA0 DUP2 PUSH2 0x1747 JUMP JUMPDEST DUP3 MSTORE POP POP JUMP JUMPDEST PUSH1 0x0 PUSH1 0x20 DUP3 ADD SWAP1 POP PUSH2 0x1FBB PUSH1 0x0 DUP4 ADD DUP5 PUSH2 0x1F97 JUMP JUMPDEST SWAP3 SWAP2 POP POP JUMP JUMPDEST PUSH32 0x5573657220616C72656164792072656769737465726564000000000000000000 PUSH1 0x0 DUP3 ADD MSTORE POP JUMP JUMPDEST PUSH1 0x0 PUSH2 0x1FF7 PUSH1 0x17 DUP4 PUSH2 0x17B5 JUMP JUMPDEST SWAP2 POP PUSH2 0x2002 DUP3 PUSH2 0x1FC1 JUMP JUMPDEST PUSH1 0x20 DUP3 ADD SWAP1 POP SWAP2 SWAP1 POP JUMP JUMPDEST PUSH1 0x0 PUSH1 0x20 DUP3 ADD SWAP1 POP DUP2 DUP2 SUB PUSH1 0x0 DUP4 ADD MSTORE PUSH2 0x2026 DUP2 PUSH2 0x1FEA JUMP JUMPDEST SWAP1 POP SWAP2 SWAP1 POP JUMP JUMPDEST PUSH32 0x566F746520646F6573206E6F7420657869737400000000000000000000000000 PUSH1 0x0 DUP3 ADD MSTORE POP JUMP JUMPDEST PUSH1 0x0 PUSH2 0x2063 PUSH1 0x13 DUP4 PUSH2 0x17B5 JUMP JUMPDEST SWAP2 POP PUSH2 0x206E DUP3 PUSH2 0x202D JUMP JUMPDEST PUSH1 0x20 DUP3 ADD SWAP1 POP SWAP2 SWAP1 POP JUMP JUMPDEST PUSH1 0x0 PUSH1 0x20 DUP3 ADD SWAP1 POP DUP2 DUP2 SUB PUSH1 0x0 DUP4 ADD MSTORE PUSH2 0x2092 DUP2 PUSH2 0x2056 JUMP JUMPDEST SWAP1 POP SWAP2 SWAP1 POP JUMP JUMPDEST PUSH32 0x4E6F7420766F74652063726561746F7200000000000000000000000000000000 PUSH1 0x0 DUP3 ADD MSTORE POP JUMP JUMPDEST PUSH1 0x0 PUSH2 0x20CF PUSH1 0x10 DUP4 PUSH2 0x17B5 JUMP JUMPDEST SWAP2 POP PUSH2 0x20DA DUP3 PUSH2 0x2099 JUMP JUMPDEST PUSH1 0x20 DUP3 ADD SWAP1 POP SWAP2 SWAP1 POP JUMP JUMPDEST PUSH1 0x0 PUSH1 0x20 DUP3 ADD SWAP1 POP DUP2 DUP2 SUB PUSH1 0x0 DUP4 ADD MSTORE PUSH2 0x20FE DUP2 PUSH2 0x20C2 JUMP JUMPDEST SWAP1 POP SWAP2 SWAP1 POP JUMP JUMPDEST PUSH32 0x566F746520616C72656164792073746F70706564000000000000000000000000 PUSH1 0x0 DUP3 ADD MSTORE POP JUMP JUMPDEST PUSH1 0x0 PUSH2 0x213B PUSH1 0x14 DUP4 PUSH2 0x17B5 JUMP JUMPDEST SWAP2 POP PUSH2 0x2146 DUP3 PUSH2 0x2105 JUMP JUMPDEST PUSH1 0x20 DUP3 ADD SWAP1 POP SWAP2 SWAP1 POP JUMP JUMPDEST PUSH1 0x0 PUSH1 0x20 DUP3 ADD SWAP1 POP DUP2 DUP2 SUB PUSH1 0x0 DUP4 ADD MSTORE PUSH2 0x216A DUP2 PUSH2 0x212E JUMP JUMPDEST SWAP1 POP SWAP2 SWAP1 POP JUMP JUMPDEST PUSH1 0x0 DUP2 SWAP1 POP SWAP2 SWAP1 POP JUMP JUMPDEST PUSH1 0x0 PUSH2 0x2196 PUSH2 0x2191 PUSH2 0x218C DUP5 PUSH2 0x2171 JUMP JUMPDEST PUSH2 0x16CD JUMP JUMPDEST PUSH2 0x1747 JUMP JUMPDEST SWAP1 POP SWAP2 SWAP1 POP JUMP JUMPDEST PUSH2 0x21A6 DUP2 PUSH2 0x217B JUMP JUMPDEST DUP3 MSTORE POP POP JUMP JUMPDEST PUSH1 0x0 PUSH1 0x40 DUP3 ADD SWAP1 POP PUSH2 0x21C1 PUSH1 0x0 DUP4 ADD DUP6 PUSH2 0x1AC2 JUMP JUMPDEST PUSH2 0x21CE PUSH1 0x20 DUP4 ADD DUP5 PUSH2 0x219D JUMP JUMPDEST SWAP4 SWAP3 POP POP POP JUMP JUMPDEST PUSH32 0x4E487B7100000000000000000000000000000000000000000000000000000000 PUSH1 0x0 MSTORE PUSH1 0x22 PUSH1 0x4 MSTORE PUSH1 0x24 PUSH1 0x0 REVERT JUMPDEST PUSH1 0x0 PUSH1 0x2 DUP3 DIV SWAP1 POP PUSH1 0x1 DUP3 AND DUP1 PUSH2 0x221C JUMPI PUSH1 0x7F DUP3 AND SWAP2 POP JUMPDEST PUSH1 0x20 DUP3 LT DUP2 SUB PUSH2 0x222F JUMPI PUSH2 0x222E PUSH2 0x21D5 JUMP JUMPDEST JUMPDEST POP SWAP2 SWAP1 POP JUMP JUMPDEST PUSH32 0x55736572206E6F74207265676973746572656400000000000000000000000000 PUSH1 0x0 DUP3 ADD MSTORE POP JUMP JUMPDEST PUSH1 0x0 PUSH2 0x226B PUSH1 0x13 DUP4 PUSH2 0x17B5 JUMP JUMPDEST SWAP2 POP PUSH2 0x2276 DUP3 PUSH2 0x2235 JUMP JUMPDEST PUSH1 0x20 DUP3 ADD SWAP1 POP SWAP2 SWAP1 POP JUMP JUMPDEST PUSH1 0x0 PUSH1 0x20 DUP3 ADD SWAP1 POP DUP2 DUP2 SUB PUSH1 0x0 DUP4 ADD MSTORE PUSH2 0x229A DUP2 PUSH2 0x225E JUMP JUMPDEST SWAP1 POP SWAP2 SWAP1 POP JUMP JUMPDEST PUSH32 0x4174206C656173742074776F206F7074696F6E73207265717569726564000000 PUSH1 0x0 DUP3 ADD MSTORE POP JUMP JUMPDEST PUSH1 0x0 PUSH2 0x22D7 PUSH1 0x1D DUP4 PUSH2 0x17B5 JUMP JUMPDEST SWAP2 POP PUSH2 0x22E2 DUP3 PUSH2 0x22A1 JUMP JUMPDEST PUSH1 0x20 DUP3 ADD SWAP1 POP SWAP2 SWAP1 POP JUMP JUMPDEST PUSH1 0x0 PUSH1 0x20 DUP3 ADD SWAP1 POP DUP2 DUP2 SUB PUSH1 0x0 DUP4 ADD MSTORE PUSH2 0x2306 DUP2 PUSH2 0x22CA JUMP JUMPDEST SWAP1 POP SWAP2 SWAP1 POP JUMP JUMPDEST PUSH32 0x4174206C65617374206F6E6520766F7465722072657175697265640000000000 PUSH1 0x0 DUP3 ADD MSTORE POP JUMP JUMPDEST PUSH1 0x0 PUSH2 0x2343 PUSH1 0x1B DUP4 PUSH2 0x17B5 JUMP JUMPDEST SWAP2 POP PUSH2 0x234E DUP3 PUSH2 0x230D JUMP JUMPDEST PUSH1 0x20 DUP3 ADD SWAP1 POP SWAP2 SWAP1 POP JUMP JUMPDEST PUSH1 0x0 PUSH1 0x20 DUP3 ADD SWAP1 POP DUP2 DUP2 SUB PUSH1 0x0 DUP4 ADD MSTORE PUSH2 0x2372 DUP2 PUSH2 0x2336 JUMP JUMPDEST SWAP1 POP SWAP2 SWAP1 POP JUMP JUMPDEST PUSH1 0x0 DUP2 SWAP1 POP DUP2 PUSH1 0x0 MSTORE PUSH1 0x20 PUSH1 0x0 KECCAK256 SWAP1 POP SWAP2 SWAP1 POP JUMP JUMPDEST PUSH1 0x0 PUSH1 0x20 PUSH1 0x1F DUP4 ADD DIV SWAP1 POP SWAP2 SWAP1 POP JUMP JUMPDEST PUSH1 0x0 DUP3 DUP3 SHL SWAP1 POP SWAP3 SWAP2 POP POP JUMP JUMPDEST PUSH1 0x0 PUSH1 0x8 DUP4 MUL PUSH2 0x23DB PUSH32 0xFFFFFFFFFFFFFFFFFFFFFFFFFFFFFFFFFFFFFFFFFFFFFFFFFFFFFFFFFFFFFFFF DUP3 PUSH2 0x239E JUMP JUMPDEST PUSH2 0x23E5 DUP7 DUP4 PUSH2 0x239E JUMP JUMPDEST SWAP6 POP DUP1 NOT DUP5 AND SWAP4 POP DUP1 DUP7 AND DUP5 OR SWAP3 POP POP POP SWAP4 SWAP3 POP POP POP JUMP JUMPDEST PUSH1 0x0 PUSH2 0x2418 PUSH2 0x2413 PUSH2 0x240E DUP5 PUSH2 0x1747 JUMP JUMPDEST PUSH2 0x16CD JUMP JUMPDEST PUSH2 0x1747 JUMP JUMPDEST SWAP1 POP SWAP2 SWAP1 POP JUMP JUMPDEST PUSH1 0x0 DUP2 SWAP1 POP SWAP2 SWAP1 POP JUMP JUMPDEST PUSH2 0x2432 DUP4 PUSH2 0x23FD JUMP JUMPDEST PUSH2 0x2446 PUSH2 0x243E DUP3 PUSH2 0x241F JUMP JUMPDEST DUP5 DUP5 SLOAD PUSH2 0x23AB JUMP JUMPDEST DUP3 SSTORE POP POP POP POP JUMP JUMPDEST PUSH1 0x0 SWAP1 JUMP JUMPDEST PUSH2 0x245B PUSH2 0x244E JUMP JUMPDEST PUSH2 0x2466 DUP2 DUP5 DUP5 PUSH2 0x2429 JUMP JUMPDEST POP POP POP JUMP JUMPDEST JUMPDEST DUP2 DUP2 LT ISZERO PUSH2 0x248A JUMPI PUSH2 0x247F PUSH1 0x0 DUP3 PUSH2 0x2453 JUMP JUMPDEST PUSH1 0x1 DUP2 ADD SWAP1 POP PUSH2 0x246C JUMP JUMPDEST POP POP JUMP JUMPDEST PUSH1 0x1F DUP3 GT ISZERO PUSH2 0x24CF JUMPI PUSH2 0x24A0 DUP2 PUSH2 0x2379 JUMP JUMPDEST PUSH2 0x24A9 DUP5 PUSH2 0x238E JUMP JUMPDEST DUP2 ADD PUSH1 0x20 DUP6 LT ISZERO PUSH2 0x24B8 JUMPI DUP2 SWAP1 POP JUMPDEST PUSH2 0x24CC PUSH2 0x24C4 DUP6 PUSH2 0x238E JUMP JUMPDEST DUP4 ADD DUP3 PUSH2 0x246B JUMP JUMPDEST POP POP JUMPDEST POP POP POP JUMP JUMPDEST PUSH1 0x0 DUP3 DUP3 SHR SWAP1 POP SWAP3 SWAP2 POP POP JUMP JUMPDEST PUSH1 0x0 PUSH2 0x24F2 PUSH1 0x0 NOT DUP5 PUSH1 0x8 MUL PUSH2 0x24D4 JUMP JUMPDEST NOT DUP1 DUP4 AND SWAP2 POP POP SWAP3 SWAP2 POP POP JUMP JUMPDEST PUSH1 0x0 PUSH2 0x250B DUP4 DUP4 PUSH2 0x24E1 JUMP JUMPDEST SWAP2 POP DUP3 PUSH1 0x2 MUL DUP3 OR SWAP1 POP SWAP3 SWAP2 POP POP JUMP JUMPDEST PUSH2 0x2524 DUP3 PUSH2 0x17AA JUMP JUMPDEST PUSH8 0xFFFFFFFFFFFFFFFF DUP2 GT ISZERO PUSH2 0x253D JUMPI PUSH2 0x253C PUSH2 0x1B58 JUMP JUMPDEST JUMPDEST PUSH2 0x2547 DUP3 SLOAD PUSH2 0x2204 JUMP JUMPDEST PUSH2 0x2552 DUP3 DUP3 DUP6 PUSH2 0x248E JUMP JUMPDEST PUSH1 0x0 PUSH1 0x20 SWAP1 POP PUSH1 0x1F DUP4 GT PUSH1 0x1 DUP2 EQ PUSH2 0x2585 JUMPI PUSH1 0x0 DUP5 ISZERO PUSH2 0x2573 JUMPI DUP3 DUP8 ADD MLOAD SWAP1 POP JUMPDEST PUSH2 0x257D DUP6 DUP3 PUSH2 0x24FF JUMP JUMPDEST DUP7 SSTORE POP PUSH2 0x25E5 JUMP JUMPDEST PUSH1 0x1F NOT DUP5 AND PUSH2 0x2593 DUP7 PUSH2 0x2379 JUMP JUMPDEST PUSH1 0x0 JUMPDEST DUP3 DUP2 LT ISZERO PUSH2 0x25BB JUMPI DUP5 DUP10 ADD MLOAD DUP3 SSTORE PUSH1 0x1 DUP3 ADD SWAP2 POP PUSH1 0x20 DUP6 ADD SWAP5 POP PUSH1 0x20 DUP2 ADD SWAP1 POP PUSH2 0x2596 JUMP JUMPDEST DUP7 DUP4 LT ISZERO PUSH2 0x25D8 JUMPI DUP5 DUP10 ADD MLOAD PUSH2 0x25D4 PUSH1 0x1F DUP10 AND DUP3 PUSH2 0x24E1 JUMP JUMPDEST DUP4 SSTORE POP JUMPDEST PUSH1 0x1 PUSH1 0x2 DUP9 MUL ADD DUP9 SSTORE POP POP POP JUMPDEST POP POP POP POP POP POP JUMP JUMPDEST PUSH1 0x0 PUSH1 0x20 DUP3 ADD SWAP1 POP DUP2 DUP2 SUB PUSH1 0x0 DUP4 ADD MSTORE PUSH2 0x2607 DUP2 DUP5 PUSH2 0x1801 JUMP JUMPDEST SWAP1 POP SWAP3 SWAP2 POP POP JUMP JUMPDEST PUSH32 0x4E487B7100000000000000000000000000000000000000000000000000000000 PUSH1 0x0 MSTORE PUSH1 0x11 PUSH1 0x4 MSTORE PUSH1 0x24 PUSH1 0x0 REVERT JUMPDEST PUSH1 0x0 PUSH2 0x2649 DUP3 PUSH2 0x1747 JUMP JUMPDEST SWAP2 POP PUSH32 0xFFFFFFFFFFFFFFFFFFFFFFFFFFFFFFFFFFFFFFFFFFFFFFFFFFFFFFFFFFFFFFFF DUP3 SUB PUSH2 0x267B JUMPI PUSH2 0x267A PUSH2 0x260F JUMP JUMPDEST JUMPDEST PUSH1 0x1 DUP3 ADD SWAP1 POP SWAP2 SWAP1 POP JUMP JUMPDEST PUSH1 0x0 DUP2 SWAP1 POP SWAP2 SWAP1 POP JUMP JUMPDEST PUSH1 0x0 PUSH2 0x26AB PUSH2 0x26A6 PUSH2 0x26A1 DUP5 PUSH2 0x2686 JUMP JUMPDEST PUSH2 0x16CD JUMP JUMPDEST PUSH2 0x1747 JUMP JUMPDEST SWAP1 POP SWAP2 SWAP1 POP JUMP JUMPDEST PUSH2 0x26BB DUP2 PUSH2 0x2690 JUMP JUMPDEST DUP3 MSTORE POP POP JUMP JUMPDEST PUSH1 0x0 PUSH1 0x40 DUP3 ADD SWAP1 POP PUSH2 0x26D6 PUSH1 0x0 DUP4 ADD DUP6 PUSH2 0x1AC2 JUMP JUMPDEST PUSH2 0x26E3 PUSH1 0x20 DUP4 ADD DUP5 PUSH2 0x26B2 JUMP JUMPDEST SWAP4 SWAP3 POP POP POP JUMP JUMPDEST PUSH32 0x4E487B7100000000000000000000000000000000000000000000000000000000 PUSH1 0x0 MSTORE PUSH1 0x32 PUSH1 0x4 MSTORE PUSH1 0x24 PUSH1 0x0 REVERT JUMPDEST PUSH32 0x566F7465206973206E6F74206163746976650000000000000000000000000000 PUSH1 0x0 DUP3 ADD MSTORE POP JUMP JUMPDEST PUSH1 0x0 PUSH2 0x274F PUSH1 0x12 DUP4 PUSH2 0x17B5 JUMP JUMPDEST SWAP2 POP PUSH2 0x275A DUP3 PUSH2 0x2719 JUMP JUMPDEST PUSH1 0x20 DUP3 ADD SWAP1 POP SWAP2 SWAP1 POP JUMP JUMPDEST PUSH1 0x0 PUSH1 0x20 DUP3 ADD SWAP1 POP DUP2 DUP2 SUB PUSH1 0x0 DUP4 ADD MSTORE PUSH2 0x277E DUP2 PUSH2 0x2742 JUMP JUMPDEST SWAP1 POP SWAP2 SWAP1 POP JUMP JUMPDEST PUSH32 0x5573657220616C726561647920766F7465640000000000000000000000000000 PUSH1 0x0 DUP3 ADD MSTORE POP JUMP JUMPDEST PUSH1 0x0 PUSH2 0x27BB PUSH1 0x12 DUP4 PUSH2 0x17B5 JUMP JUMPDEST SWAP2 POP PUSH2 0x27C6 DUP3 PUSH2 0x2785 JUMP JUMPDEST PUSH1 0x20 DUP3 ADD SWAP1 POP SWAP2 SWAP1 POP JUMP JUMPDEST PUSH1 0x0 PUSH1 0x20 DUP3 ADD SWAP1 POP DUP2 DUP2 SUB PUSH1 0x0 DUP4 ADD MSTORE PUSH2 0x27EA DUP2 PUSH2 0x27AE JUMP JUMPDEST SWAP1 POP SWAP2 SWAP1 POP JUMP JUMPDEST PUSH32 0x496E76616C6964206F7074696F6E000000000000000000000000000000000000 PUSH1 0x0 DUP3 ADD MSTORE POP JUMP JUMPDEST PUSH1 0x0 PUSH2 0x2827 PUSH1 0xE DUP4 PUSH2 0x17B5 JUMP JUMPDEST SWAP2 POP PUSH2 0x2832 DUP3 PUSH2 0x27F1 JUMP JUMPDEST PUSH1 0x20 DUP3 ADD SWAP1 POP SWAP2 SWAP1 POP JUMP JUMPDEST PUSH1 0x0 PUSH1 0x20 DUP3 ADD SWAP1 POP DUP2 DUP2 SUB PUSH1 0x0 DUP4 ADD MSTORE PUSH2 0x2856 DUP2 PUSH2 0x281A JUMP JUMPDEST SWAP1 POP SWAP2 SWAP1 POP JUMP JUMPDEST PUSH32 0x4E6F7420616C6C6F77656420746F20766F746500000000000000000000000000 PUSH1 0x0 DUP3 ADD MSTORE POP JUMP JUMPDEST PUSH1 0x0 PUSH2 0x2893 PUSH1 0x13 DUP4 PUSH2 0x17B5 JUMP JUMPDEST SWAP2 POP PUSH2 0x289E DUP3 PUSH2 0x285D JUMP JUMPDEST PUSH1 0x20 DUP3 ADD SWAP1 POP SWAP2 SWAP1 POP JUMP JUMPDEST PUSH1 0x0 PUSH1 0x20 DUP3 ADD SWAP1 POP DUP2 DUP2 SUB PUSH1 0x0 DUP4 ADD MSTORE PUSH2 0x28C2 DUP2 PUSH2 0x2886 JUMP JUMPDEST SWAP1 POP SWAP2 SWAP1 POP JUMP JUMPDEST PUSH1 0x0 DUP2 SWAP1 POP SWAP2 SWAP1 POP JUMP JUMPDEST PUSH1 0x0 PUSH2 0x28EE PUSH2 0x28E9 PUSH2 0x28E4 DUP5 PUSH2 0x28C9 JUMP JUMPDEST PUSH2 0x16CD JUMP JUMPDEST PUSH2 0x1747 JUMP JUMPDEST SWAP1 POP SWAP2 SWAP1 POP JUMP JUMPDEST PUSH2 0x28FE DUP2 PUSH2 0x28D3 JUMP JUMPDEST DUP3 MSTORE POP POP JUMP JUMPDEST PUSH1 0x0 PUSH1 0x40 DUP3 ADD SWAP1 POP PUSH2 0x2919 PUSH1 0x0 DUP4 ADD DUP6 PUSH2 0x1AC2 JUMP JUMPDEST PUSH2 0x2926 PUSH1 0x20 DUP4 ADD DUP5 PUSH2 0x28F5 JUMP JUMPDEST SWAP4 SWAP3 POP POP POP JUMP INVALID LOG2 PUSH5 0x6970667358 0x22 SLT KECCAK256 0xAE CREATE DUP9 0xDE JUMPI PUSH0 0xCE JUMPDEST 0xB1 0xDF 0xC8 SWAP9 0x1F 0xC5 0xF7 JUMPI 0xED PUSH26 0x86FB7217DC7A3975D7A6A2AC68AA64736F6C6343000814003300 "},"methodIdentifiers":{"createVote(string,string[],address[])":"6ecbc151","getUserVoteStatus(uint256,address)":"89b7dd85","getVoteDetails(uint256)":"54a1b431","owner()":"8da5cb5b","register()":"1aa3a008","registeredUsers(address)":"0e50cee5","renounceOwnership()":"715018a6","stopVote(uint256)":"43ab92b7","transferOwnership(address)":"f2fde38b","uniVoteCoin()":"12f46337","vote(uint256,uint256)":"b384abef","voteCount()":"c6384071"}}}}}